:020000041008E2
:1000000000000828016208100568081089650810BA
:10001000096808100D680810116808100000000039
:1000200000000000000000000000000079660810D9
:100030001568081000000000196808101D680810F5
:10004000AF5B0810D55B0810FB5B0810215C081043
:10005000475C08106D5C0810935C0810B95C0810D0
:100060002168081025680810296808102D680810F4
:100070003168081035680810396808103D680810A4
:1000800040F0200070472DE9F14FB0B09246049146
:100090000DF142013A9A2B9199464A7000200AE0EC
:1000A0001AF8011B0498309A90470028049000F039
:1000B00034860D98401C0D909AF8000050B1252808
:1000C000EED1002100220791089209910A920B912A
:1000D0000C9204E00D9800F022BE41F001011AF8E4
:1000E000010F2028F9D023280CD02B2804D02D284C
:1000F00005D0302809D00BE041F00201EFE741F0D4
:100100000401ECE741F00801E9E741F01001E6E7FE
:100110002A280FD1D9F8002052F8040BC9F8002082
:1001200000280F9003D540420F9041F004010AF1DE
:10013000010A14E00F92DFF8EC3B0AE00F989842B6
:1001400005DA00EB800402EB4402303A0F920AF128
:10015000010A9AF80020A2F130000A28EED39AF89A
:1001600000002E2803D04FF0FF320E9229E01AF83B
:10017000010F2A2809D1D9F8000050F8042BC9F83A
:1001800000000E920AF1010A1BE02D280CBF0AF1B3
:10019000010A002000220E92DFF8884B0BE040B9E4
:1001A0000E9AA24205DA02EB820503EB4503303BCF
:1001B0000E930AF1010A9AF80030A3F130020A2ADC
:1001C000EDD3ADF840100FF660309AF8001000F053
:1001D000EDFE08B11AF8010B8DF842009DF84200BF
:1001E000682805D19AF8000068280CD1622106E041
:1001F0006C2804BF9AF800006C2804D171218DF896
:1002000042100AF1010A12A806901AF801BBBBF1CC
:1002100025012CD01C3900F09481091F022940F2DD
:100220009081133900F0AB84093900F08A81891E6E
:1002300000F04085491E00F0ED84491E022940F27D
:100240008081091F00F0E684491F00F0EF80491EFD
:1002500000F09584491E00F0D780C91E0CD0891E7D
:1002600000F08D84C91E00F08A8400F02EBD0123A9
:100270000793252100F026BDD9F8000050F8044B63
:10028000C9F80000002C059440F0AB802B99487809
:10029000002800F0A1804FF0FF340FF6942000F00A
:1002A00095FE241A40F0398500F01BBD01236A46F3
:1002B00002A9304600F000FE002840F02E85641EA2
:1002C000F4D13096079C12AF74B1309E17F8011B21
:1002D0000498B0470028049000F01F850D98401C3A
:1002E000641E0D90F2D130960A9C3021002C8DF8BE
:1002F00000100CDD309E01236A4602A9304600F052
:10030000DBFD002840F00985641EF4D13096059F7E
:10031000089C74B1309E17F8011B0498B047002860
:10032000049000F0FA840D98401C641E0D90F2D1E8
:1003300030960B9C3021002C8DF800100CDD309E87
:1003400001236A4602A9304600F0B6FD002840F0BD
:10035000E484641EF4D1309605980899099C4718E6
:1003600074B1309E17F8011B0498B0470028049020
:1003700000F0D3840D98401C641E0D90F2D130968D
:100380000C9C3021002C8DF800100CDD309E0123D8
:100390006A4602A9304600F08FFD002840F0BD8477
:1003A000641EF4D130969DF8400041077FF584AE7D
:1003B0002020002D8DF800007FF77EAE309C0123B9
:1003C0006A4602A9204600F077FD002840F0A58487
:1003D0006D1EF4D130946FE60FF63C30059000F0BE
:1003E00080BC0E9D002D04D5204600F00FFE044673
:1003F00007E02A46204600F025FE002814BF041B13
:100400002C46089400F06DBCD9F8001051F8040B8C
:10041000C9F8001020F00004002121F0FF35CDE9DB
:10042000024512AB0593782100F040BC2B99487827
:1004300020B14FF0FF340FF6B02030E79DF84200B6
:10044000622860D0682817D06A283FD06C2806D070
:10045000712847D074282CD07A281DD062E0D9F8B2
:10046000001051F8040BC9F80010002866D14FF0B5
:10047000FF340FF68C2012E7D9F8001051F8040B66
:10048000C9F8001020B94FF0FF340FF6742006E7CA
:100490000D99018000F025BCD9F8001051F8040B2B
:1004A000C9F80010002849D14FF0FF340FF6502052
:1004B000F5E6D9F8001051F8040BC9F8001000282F
:1004C0003CD14FF0FF340FF63820E8E6D9F80010A1
:1004D00051F8040BC9F8001080B94FF0FF340FF643
:1004E0002020DCE6D9F8001051F8040BC9F8001000
:1004F00020B94FF0FF340FF60820D0E60D9AD3173D
:10050000C0E90023EDE3D9F8001051F8040BC9F855
:10051000001020B94FF0FF340FF6E410BFE60D993C
:100520000170DEE3D9F8001051F8040BC9F800108F
:1005300020B94FF0FF340FF6C810B0E60D990160F6
:10054000CFE39DF842004C2807BFD9F80010CA1D20
:10055000D9F80000C21D22F00702C9F80020D2E934
:1005600000010832C9F80020CDE90201C80F02D00D
:1005700007982D210AE0BDF84000810702D50798B1
:100580002B2103E0C00705D50798202112AA11549A
:10059000401C079012A807994BF0200300EB010CB8
:1005A000DDE90201CDE92C01612BCDF814C021ACAD
:1005B0000BD00E98002848BF062105D404BF4BF08D
:1005C0002000672801D101210E91DDE902014F00D1
:1005D00047EAD0777E15FF174FF0FF32974208BFEA
:1005E000964210D1090341EA10510003002908BFC7
:1005F000002808D0ABF1610503211A2D089118D30A
:100600000FF61C1110E0DDE902014A00521512F14B
:10061000010F11D108030FD1ABF1610503211A2D90
:1006200008911FD30FF600110322604600F036FD3B
:1006300057E30FF6E801F7E7DDE902016A4600F04B
:1006400081FDCDE902014BF02000612811D1059810
:1006500030210170821C0592BBF1610F0CBF782123
:10066000582102E00FF6BC01DEE741700798801CBC
:100670000790DDE9020120F0000231F0004308BFDD
:10068000002A02D10026002542E14BF02008B8F1F3
:10069000610F40F092800E98002847BF2121019100
:1006A000401C0190019FDDE92C017F1C00220023EA
:1006B000DDE9024500F07EFD38BF85F00045009978
:1006C0008DF88420091F002F00910DF1850632DD81
:1006D000204629460022002300F086FD2BD21C2252
:1006E00000F09CFD04460D4600F01AFEFF1F002F8F
:1006F000804609DD00F01BFE02460B4620462946D7
:1007000000F01CFE04460D46F01D0721B8F1000F55
:100710000CDD491E5EBF08F00F0200F8012D4FEA04
:100720002818F3D502E0002200F8012D491EFAD561
:10073000C61D002FCCDC0DF18500361A01980DF195
:1007400085048642D8BF304600282FD4B04206DA4E
:100750000DF185010A5C082AA8BF0F2100DA0021EB
:10076000024621AB134400E0401E13F80159521E0B
:100770008D42F9D00F2904D10DF185018B5C5B1CF2
:100780008B54002A04D50099091D21AC401C00910E
:10079000411E0BD4621813783033DDB23A2DA4BF5A
:1007A0005B443A3B491E02F80139F4D50E99002901
:1007B00040F1AC80421E0E92A8E00099DFF8E826D6
:1007C00047F29750414391FBF2F20092DDE92C454C
:1007D000C2F10702002A25F0004504DD2046294623
:1007E00000F03EFB0BE052420020DFF8C01600F0A4
:1007F00037FB02460B462046294600F0A8FD04467A
:100800000D46B8F1660F06BF009F0A3706270E98FF
:100810003F18142FC8BF142730208DF884000DF125
:100820008506002F34DD2046294600F099FD01465B
:100830000A4606F1080304200A26B2FBF6F606EB88
:10084000860EA2EB4E02303203F8012C0A22B6FBD0
:10085000F2F202EB820EA6EB4E063036401E03F893
:10086000026DE9D1083F002F03F10806D9DD0846E3
:1008700000F07DFD02460B462046294600F05EFD55
:100880000022DFF82C3600F079FD04460D46CAE759
:100890000DF18500361A0DF1850404E00098401E24
:1008A000761E0090641C20783028F7D0B8F1660FCF
:1008B00002D10098401C04E0B8F1650F0CBF012084
:1008C00000200E9940188642B8BF701E00281DD423
:1008D000B04204DA215C3429C8BF392100DC302160
:1008E0000246631E9D1800E0401E15F80169521E65
:1008F0008E42F9D0392902D1A15C491CA154002AA9
:1009000004D50099491C1C46401C00910646009DD8
:100910000E9F30B2002802DC01260FF210644BF06B
:100920002000662808BF6D1C15D067280FFA85F8CF
:1009300041D118F1040F44DBB84542DA9DF840007C
:100940006D1C010703D430B2B842D8BF074628B2A5
:100950003F1A48BF00270FFA85F8B8F1000F00F3DF
:10096000AF800898411C0891302205990A54002F45
:1009700003DC9DF84000010705D50898411C08914B
:100980002E2205990A5417EB080FB8BF7D422DB2ED
:100990006842ED1932B20B909542B8BF2E46059BC6
:1009A000089836B2099632462146184400F076FB84
:1009B000AD1B0C95CCE0BBF1610F15D14FF0700B66
:1009C00017E030B2B84204DA9DF840100A0758BF69
:1009D00007467F1E48BF0027BBF1670F14BF4FF0CB
:1009E000450B4FF0650B04E0BBF1410F08BF4FF022
:1009F000500B0898411C0891002F059914F8012B01
:100A00000A5403DC9DF84000010719D50898411CE1
:100A100008912E2205990A54002F11DD761E30B25E
:100A20008742B8BF3E460598089B32B2214618441B
:100A300000F034FB089836B23018BF1B08900B97B3
:100A4000059808990844B8F1000F80F800B003D465
:100A50002B224270821C04E02D2145464170821CED
:100A60006D4200212CAB28460AE004460A2094FB84
:100A7000F0F000EB8005A4EB450403F8014B491CA2
:100A800000B20028F1DC012906DC4BF020006528CB
:100A900004BF302002F8010B00292CAB08D1302014
:100AA00002F8010B06E0491E585C303002F8010BD9
:100AB0000029F8DC059908980844121A099247E0C1
:100AC00030B229B288421BDA0598089B32B221461F
:100AD000184400F0E3FA089936B271180891A8EBAF
:100AE0000600002F0B9003DC9DF84000020705D59F
:100AF000059A2E2050540999491C09910C9727E01A
:100B00000598089B2AB22146184400F0C7FA0898B5
:100B1000761B4044002F089003DC9DF840100A0724
:100B200004D5411C08912E2205990A5430B28742FF
:100B3000B8BF3E460598089B32B204EB0801184442
:100B400000F0ACFA089836B23018BE1B08900B962D
:100B50009DF8400000F01400102840F0C280079A71
:100B600008980B99821809988A1882180C980F997E
:100B70008018884280F2B580081A0A90B1E09DF88A
:100B80004200622808D068280ED06A2814D06C2849
:100B90001FD0712810D01CE0D9F8001051F8040BB8
:100BA000C9F80010C0B21AE0D9F8001051F8040BCF
:100BB000C9F8001080B212E0D9F80000C21D22F07E
:100BC0000702C9F80020D2E900010832C9F8002064
:100BD00006E0D9F8001051F8040BC9F80010002104
:100BE000CDE902019DF8400001075AD5DDE9022355
:100BF000002B08BF002A54D04BF02000782850D199
:100C0000079812A930220A54401C431C079301F88C
:100C100000B046E09DF84200622808D068280ED057
:100C20006A2814D06C281FD0712810D01CE0D9F885
:100C3000001051F8040BC9F8001040B21AE0D9F8BE
:100C4000001051F8040BC9F8001000B212E0D9F8F6
:100C50000000C21D22F00702C9F80020D2E90001FD
:100C60000832C9F8002006E0D9F8001051F8040B4A
:100C7000C9F80010C117CDE90201002902D5079873
:100C80002D210AE0BDF84000810702D507982B21ED
:100C900003E0C00705D50798202112AA1154401C73
:100CA000079012A8079901440591594602A800F03F
:100CB0004DF816E001200790D9F8000050F8041B09
:100CC000C9F800008DF848100BE001212522BBF186
:100CD000000F07918DF8482003D0022207928DF86B
:100CE00049B00F9D07990A986D1A08992D1A0B980B
:100CF0006D1A09992D1A0C986D1A9DF840102D1A2D
:100D000048073FF5DFAA2021002D8DF800107FF75E
:100D1000D9AA309E2C46FFF7C9BA4FF0FF3031B048
:100D2000BDE8F08FCBCCCC0C686A6C747A4C0000B8
:100D30007072696E74665F733A2062616420257315
:100D400020617267756D656E740000002DE9FC47C7
:100D500007468A463C6950466F2808BF082505D0DB
:100D6000FFF78EF9782814BF0A251025D7E900016E
:100D70003C2680468946BAF1640F18BFBAF1690F64
:100D800005D1002903D5D8F1000869EB4909B9F16B
:100D9000000F08BFB8F1000F0CD1386B50B9082D07
:100DA0003AD197F83800010736D530223B2684F82F
:100DB0003B2031E08DF800A0404649462A46EB171B
:100DC00000F0E6FA3032D0B2761E3A2801960EDAFA
:100DD000A255404649462A46EB1700F0D9FA80460C
:100DE0005FEA010908BFB8F1000F05D108E09DF8DE
:100DF00000001218513AEBE7F868A1198842DBD3DA
:100E0000082D09D197F83800010705D5A05D3028D5
:100E100002D0761E3020A055C6F13C03BB61A1195B
:100E2000F960386B834208DAC31A3B624FF6EF7001
:100E3000398F01403987BDE8F38700280ED597F830
:100E4000380000F01400102808D17A6B7969386AEC
:100E5000521A121AD21A002AC8BF3A62BDE8F387A2
:100E60002DE9D04306460F4614464FF00008DFF840
:100E7000449012E0E00707D542464B4630463946DB
:100E800000F07CFA06460F464046494642464B462D
:100E900000F074FA641080468946002CEAD130468E
:100EA0003946BDE8D0830000A08601000000F03F75
:100EB00084D7974100002440F8B505460E461746F2
:100EC0001C4600205CB117F8011BB068A847B06051
:100ED00030B1F06A401CF0620020641EF3D1F2BD14
:100EE0004FF0FF30F2BD00007072696E74665F7380
:100EF0003A20256E20646973616C6C6F77656400BD
:100F00007072696E74663A2062616420256E206199
:100F10007267756D656E7400000000006E616E0092
:100F20004E414E00696E6600494E46003000F0B4F6
:100F30000246106895681318506803EB5004C00708
:100F400048BF4D44A3422DD013F8016B16F00300A7
:100F500004BF13F8010BC01C31090F2907D113F886
:100F6000011B0F3103E013F8017B05F8017B401EE4
:100F7000F9D10029E6D013F8010BC6F38106032E40
:100F800008BF13F8016B00EB0620404228440026FE
:100F9000B71E8F421EBF10F8017B05F8017B761C3F
:100FA000F6D1CFE7F0BC02F10C007047C9B202786D
:100FB0008A421AB11CBF10F8012FF9E718BF0020B0
:100FC00070470268531C03601170704780B500B908
:100FD00006A005490B681BB122220021984701E0B9
:100FE00000F0EEFA222002BD1C0F0228636F6E7320
:100FF000747261696E742068616E646C65723A2007
:10100000626164206D6573736167650000F10103BF
:10101000810704D010F8011B820781B1FAD1026860
:10102000A2F10131914311F0803104BF50F8042F37
:10103000F6E709BAB1FA81F100EBD100401CC01A01
:1010400070470000C9B2830706D0521E22D310F8A1
:10105000013B9942F7D11FE0083A13D302F1040291
:1010600041EA012141EA014150F8043B121F21BF2E
:101070004B40A3F1013C2CEA030C1CF0803FF3D061
:10108000C9B2001F083210F8013B521E28BF91EA76
:10109000030FF8D818BF0120401E704762B38B07BA
:1010A00008D0521E11F8013B00F8013B00F02480EB
:1010B0008B07F6D1830740F0208000BF103A07D39A
:1010C00030B4B1E83810103AA0E83810F9D230BC8A
:1010D000530724BFB1E80810A0E8081044BF51F836
:1010E000043B40F8043BD20724BF31F8022B20F820
:1010F000022B44BF0B7803707047121F17D35B009D
:1011000009D151F8043B20F8023B1B0C121F20F8B8
:10111000023BF6D20BE051F8043B00F8013B1B0AFE
:1011200020F8023B1B0C121F00F8013BF3D238BF22
:10113000121D521E24BF11F8013B00F8013BF8D8E4
:101140007047000010B5144600F002F8226010BD90
:10115000C1F30A5343B14A0012F5001F28D2A3F28B
:10116000FE32A1EB0251704750EA410C20D001F051
:10117000004C31EA0C01B1FA81F204BFB0FA80F3FD
:10118000D2180B3AB2F120032CBF00FA03F19140C0
:1011900041EA0C013EBFC2F1200C20FA0CF31943C6
:1011A0009040524240F2FD33D21A01EB0351704796
:1011B0000022704741EA030C50EA4C0C52EA0C0C36
:1011C0004FF4001C09D307D01CEB410F9CBF1CEB54
:1011D000430F8B4208BF824270471CEB430FFBD882
:1011E000994208BF9042704741EA030C50EA4C0C08
:1011F00052EA0C0C4FF4001C09D307D01CEB410F32
:101200009CBF1CEB430F994208BF904270471CEBF8
:10121000410FFBD88B4208BF8242704700B541ECBA
:10122000100B104600F004F851EC100B00BD00BF8D
:10123000020030EE101B40F2FF7C37D41CEA115341
:1012400013D063456BD09B18634504D201EB025168
:1012500020EE101B704701F0004141EA0C510020C4
:1012600041EC100BAFF30080704710EE100B50EA0A
:10127000410054D0B2F57F7F08D202EB5C01090532
:10128000002041EC110B20EE010B70474FF0FE41A6
:10129000002341EC113B20EE010BB2F57E7230EEE3
:1012A000101B4FEA410342EB5353CDE752421CEA75
:1012B000115316D0634532D09A4204D2A1EB0251A9
:1012C00020EE101B70475B1ED21AA1EB035120EEDB
:1012D000101B372A0CD3002001F0004141EC100B09
:1012E000C0E710EE100B50EA410018D0372AF2D2B6
:1012F000C2EB5C021105002041EC110BF1EE100A6B
:1013000020F01F0121F4F851E1EE101A20EE010B3C
:10131000F1EE101AE1EE100A11F0080FA2D1704799
:1013200041EC100BBDEEC00B10EE100A704700EE42
:10133000100AB8EEC00B51EC100B704741EC100BCB
:1013400043EC112B30EE410B51EC100B704741EC8C
:10135000100B43EC112B80EE010B51EC100B70477E
:1013600041EC100BBCEEC00B10EE100A704700EE03
:10137000100AB8EE400B51EC100B704741EC100B0B
:1013800043EC112B20EE010B51EC100B70470000C9
:10139000BBBBE1B1B2F5803F80F07E80022A1ED94E
:1013A0008C46B1FBF2F102FB11C31B0443EA10436C
:1013B000B3FBF2FC02FB1C3380B240EA0343B3FBF5
:1013C000F2F002FB103240EA0C4000237047022A80
:1013D00005D98446B0FBF2F002FB10C270474AB157
:1013E00005D100F0010249085FEA30007047002291
:1013F0000023704700F0E8B80B0002000021002035
:101400007047904271EB030CF6D3B3F5803F2FD2B7
:10141000F0B5B3FA83F7B1FA81F4A7F10F0E3D1BD3
:101420005340CEF1200602FA0EF2F3415340B5F1DB
:101430000F0746D80F3C2C444140C4F12006A04081
:10144000F1414140B1FBF3F603FB1611A2FB064547
:10145000001BA94102D2761E8018594180EA010280
:1014600021FA0EF362FA0EF200215A403046F0BD26
:1014700030B4B1FBF3FC03FB1C11A2FB0C45001BB9
:10148000A94103D2ACF1010C8018594130BC02468D
:101490000B46604600217047B2F1807F65D3F0B5FE
:1014A000B2FA82F7B1FA81F4C7F10F063D1B22FAB6
:1014B00006F307F1110EF24120355A40B5F10F073E
:1014C000B8D94140C4F12006A040F1414140B1FBF0
:1014D000F3FC03FB1C11A2FB0C45001BA94103D22A
:1014E000BCF1010C801859410F2F12D30F3FC903D3
:1014F00041EA5041B1FBF3F603FB1611A2FB06458E
:10150000D4EBC030A94102D2761E8018594146EA78
:10151000CC3C07B34140C7F12006B840F1414140FF
:10152000B1FBF3F603FB1611A2FB0645001BA94114
:1015300002D2761E8018594180EA010221FA0EF388
:10154000C7F1200462FA0EF20CFA07F05A402CFAA6
:1015500004F13043F0BD80EA010221FA0EF30021CC
:1015600062FA0EF260465A40F0BD8C46B1FBF2F1D1
:1015700002FB11C31B0243EA1063B3FBF2FC02FB44
:101580001C331B024CEA002043EA1063B3FBF2FC5D
:1015900002FB1C331B024CEA002043EA1063B3FB3E
:1015A000F2FC02FB1C331B024CEA002043EA1063EE
:1015B000B3FBF2FC02FB1C324CEA00200023704714
:1015C000012000F003B800007047000080B5AFF3C1
:1015D0000080024A11001820ABBEFBE72600020083
:1015E000022801D3012010E00B00DBB2042B01DB49
:1015F00001200AE0DFF8CC3803EB8000C9B2405C80
:10160000824201D3012000E000207047F8B50400B9
:101610000F0015001E00022C01D301202AE02A0031
:101620003900C9B22000FFF7DBFF012801D10120FA
:1016300020E006983900C9B202291ED1B6F5803FD4
:1016400019D2202817D24FF4C052DFF87C18630358
:101650000B4403EB850313441F6866F317271F60D1
:101660006403214401EB850111440A6860F3C70259
:101670000A600020F2BD0120FCE7FFB2032F1FD15A
:10168000B6F1807F1AD2202818D24FF4E052DFF84A
:10169000381863030B4403EB850313441F6807F0FA
:1016A000FF0757EA06271F606403214401EB850109
:1016B00011440A6860F3C7020A60DAE70120D9E73B
:1016C0000120D7E700B20012C0B27047F8B505009C
:1016D0000E001700280000B2FFF7F4FF04002000FE
:1016E000C0B2022801D3012024E03A003100C9B27F
:1016F0002000C0B2FFF774FF012801D1012019E0DA
:10170000DFF8C4172000C0B2400308442A00D2B258
:1017100000EB8200D0F8000CF6B266F3092067F304
:101720000700E4B264032144EDB201EB8501C1F886
:10173000000C0020F2BD70B504000D001600022C54
:1017400001D301201DE032002900C9B22000FFF7BB
:1017500047FF012801D1012013E0DFF86C17600377
:10176000085850F0004050F0407050F47F00EDB247
:1017700065F3092066F30700620388506403085983
:10178000002070BDD0F840037047D0F80803C005B2
:10179000C00D704710F541710A6852F480320A603A
:1017A00010F541710A6832F480320A60D0F80403FF
:1017B0007047C0F840127047D0F80802C005C00D4D
:1017C0007047D0F80802C0F3C030704738B5050044
:1017D0002800FFF7F1FF04002800FFF7F2FF0419CB
:1017E000002C01D1012000E00020C0B232BDC0F8C1
:1017F000C81F7047D0F8C80F7047C0F8C01FD0F896
:10180000C00F7047C0F8881F7047D0F8880F704726
:10181000C0F8801FD0F8800F7047016851F0004178
:10182000016070472DE9F84F0400012500200020D9
:10183000DFF858082100C9B250F82160D6F8040337
:10184000000601D1042700E001273000FFF7D2FF96
:101850003900C9B2084253D03800C0B2012835D18E
:101860003000FFF792FF80465FF0000901E019F1B8
:1018700001094046C0B2814522DADFF814A82000F1
:10188000C0B21AF80000411C2200D2B20AF80210BD
:10189000DFF800182200D2B2120101EB020BC0B235
:1018A00000903000FFF76EFF00990BF80100200058
:1018B000C0B21AF800001028D9DB3000FFF76AFF29
:1018C0000120DFF8D417E4B2085513E03000FFF729
:1018D00059FFDFF8C0172200D2B21201885401204C
:1018E000DFF8AC172200D2B288540120DFF8A81725
:1018F000E4B20855FFB239003000FFF77EFF0AE07E
:101900003000FFF782FF800505D54FF400713000ED
:10191000FFF77EFF00252800C0B2BDE8F28F38B582
:1019200004001500C9B200290ED0102919D02029B1
:1019300024D030292FD031293AD0402945D0502900
:1019400050D060295BD067E0DFF85007A06001202D
:101950002073112060734FF48C70E081122020827C
:1019600060E0DFF83C07A060012020731120607365
:1019700040F21D10E0816B20208253E0DFF8240745
:10198000A06001202073112060734FF48E70E081FD
:101990006A20208246E0DFF81007A0600220207352
:1019A0001120607340F21B10E0816920208239E031
:1019B000DFF8F806A060012020731120607340F268
:1019C0001B10E081692020822CE0DFF8E406A06093
:1019D00001202073132060734FF48D70E081682024
:1019E00020821FE0DFF8CC06A060012020731120C8
:1019F000607340F21F10E0816D20208212E0DFF85A
:101A0000B806A06001202073112060734FF48F701E
:101A1000E0816C20208205E0DE22DFF8A0160020A5
:101A200000F0DCFCEDB2002D0ED0102D19D0202DD1
:101A300024D0302D2FD0312D3AD0402D45D0502DEF
:101A400050D0602D5BD067E0DFF8500620600020AA
:101A50002071112060714FF48C70E081122020827F
:101A600061E0DFF83C0620600020207111206071E9
:101A700040F21D10E0816B20208254E0DFF8240644
:101A8000206000202071112060714FF48E70E08181
:101A90006A20208247E0DFF81006206001202071D4
:101AA0001120607140F21B10E081692020823AE031
:101AB000DFF8F8052060002020711120607140F2ED
:101AC0001B10E081692020822DE0DFF8E405206012
:101AD00000202071132060714FF48D70E081682028
:101AE000208220E0DFF8CC0520600020207111204A
:101AF000607140F21F10E0816D20208213E0DFF85A
:101B0000B805206000202071112060714FF48F70A3
:101B1000E0816C20208206E04FF49172DFF89C1582
:101B2000002000F05BFC31BD38B50400DFF85C55E7
:101B3000C9B22000C0B255F82000FFF73AFE2000DD
:101B4000C0B255F82000FFF741FE0028F7D031BDA4
:101B500070B505000E00140006E031782800C0B210
:101B6000FFF7E2FF641E761C002CF6D170BD38B57D
:101B700004000D0005E029782000C0B2FFF7D4FF73
:101B80006D1C28780028F6D131BD30B40022DFF872
:101B900008350200D2B29A5C002A2CD0DFF8F42477
:101BA0000400E4B22401145D0C70DFF8E444010089
:101BB000C9B2615C491E0500EDB261550100C9B2B0
:101BC000615C002912D000210300DBB2E35C994282
:101BD0000FDA0300DBB21B0113440500EDB22D0147
:101BE00015440D446D785D54491CEDE70021C0B2E9
:101BF0001954012000E00020C0B230BC704770B51D
:101C000005000C00DFF884642800C0B256F82000FC
:101C1000FFF7FBFD4008400001002800C0B256F865
:101C20002000FFF7EFFD2800C0B256F82000FFF7B4
:101C3000ECFD30F0020001002800C0B256F8200090
:101C4000FFF7E0FD2800C0B256F82000FFF7DDFDE9
:101C500030F0200001002800C0B256F82000FFF745
:101C6000D1FD2800C0B256F82000FFF7CEFD30F0BD
:101C7000400001002800C0B256F82000FFF7C2FD66
:101C80002800C0B256F82000FFF7BFFD30F010006A
:101C900001002800C0B256F82000FFF7B3FD28006D
:101CA000C0B256F82000FFF7B0FD30F4807001009C
:101CB0002800C0B256F82000FFF7A4FD2800C0B2EB
:101CC00056F82000FFF7A1FD30F4806001002800E5
:101CD000C0B256F82000FFF795FD002C0ED028006A
:101CE000C0B256F82000FFF785FD50F400700100E7
:101CF000EDB256F82500FFF785FD0DE02800C0B2D3
:101D000056F82000FFF776FD30F400700100EDB2C8
:101D100056F82500FFF776FD70BD70B505000C0084
:101D2000DFF868632800C0B256F82000FFF762FDB4
:101D300030F0080001002800C0B256F82000FFF77C
:101D400056FD2800C0B256F82000FFF753FD30F0D2
:101D5000200001002800C0B256F82000FFF747FD20
:101D60002800C0B256F82000FFF744FD30F4807020
:101D700001002800C0B256F82000FFF738FD280007
:101D8000C0B256F82000FFF735FD30F400700100B6
:101D90002800C0B256F82000FFF729FD2800C0B285
:101DA00056F82000FFF726FD30F4006001002800FF
:101DB000C0B256F82000FFF71AFD2800C0B256F84E
:101DC0002000D0F8040300061FD1002C5BD12800AE
:101DD000C0B256F82000FFF70DFD4008400001009A
:101DE0002800C0B256F82000FFF701FD2800C0B25D
:101DF00056F82000FFF7FEFC30F004000100EDB2C1
:101E000056F82500FFF7F3FC70BD002C1DD028000C
:101E1000C0B256F82000FFF7EDFC30F004000100DE
:101E20002800C0B256F82000FFF7E1FC2800C0B23D
:101E300056F82000FFF7DEFC50F001000100EDB283
:101E400056F82500FFF7D3FCDEE72800C0B256F8AD
:101E50002000FFF7CFFC30F0040001002800C0B2E2
:101E600056F82000FFF7C3FC2800C0B256F8200047
:101E7000FFF7C0FC400840000100EDB256F8250015
:101E8000FFF7B5FCC0E72800C0B256F82000FFF706
:101E9000B1FC4008400001002800C0B256F8200004
:101EA000FFF7A5FC2800C0B256F82000FFF7A2FCFF
:101EB00050F004000100EDB256F82500FFF797FC42
:101EC000A2E7000098670810000004402DE9F041E7
:101ED0002DED028BA8B005000E0017002800390078
:101EE000C9B20909C0B2884201D1012000E0002036
:101EF0001C00DFF8C8814FF421724146C0B200F0E7
:101F00006DFA28002100C9B20909C0B2884201D186
:101F1000012000E0002040F285224146C0B200F0DE
:101F20005DFA02A8142100F0E9FA342100220DF133
:101F30006808404600F0E6FA4C2100220DF11C082A
:101F4000404600F0DFFA082080B206FB00F65C484D
:101F5000B0FBF6F85A4806FB180000EE100AB8EE7F
:101F6000400B01EE106AB8EE411B80EE010BBFEE94
:101F7000ED0B10EE100B08EE100A2200D2B2390061
:101F8000C9B202A8FFF7CBFC08201B909DF80D00FA
:101F90008DF870001AAA9DF80C10029800F071FBE1
:101FA00006201B909DF815008DF870001AAA9DF868
:101FB0001410049800F065FB00200790082008909A
:101FC0000820099002200B9000200C900020129015
:101FD000002014902D4C2800C0B254F8200000F0CE
:101FE000D1FC38492A00D2B2382042430A4407A91A
:101FF0002800C0B254F8200000F082FB2800C0B2D4
:1020000054F82000FFF709FC2A00D2B20321BDF9E1
:102010001600FFF75BFBBDF91600FFF753FB8DEDD4
:10202000008AB8F1010843462A00D2B20321C0B2A7
:10203000FFF7ECFABDF91600FFF744FB2A00D2B215
:102040000321C0B2FFF777FBBDF91800ADF800001F
:102050000320ADF8020001208DF8040007221A4881
:102060002900C9B250F82110684600F029FD00216E
:102070002800C0B2FFF751FE00212800C0B2FFF7D0
:10208000BEFD28B0BDEC028BBDE8F08168070228D8
:10209000EC0E0228000D0228F40E02280000314048
:1020A0000002314000053140800831408006314057
:1020B0000007314000013140800131405864081070
:1020C00000B4C404880902284C07022882B000200A
:1020D0000190002000900020019009E00098401C31
:1020E00000900098B0F5005FF8D30198401C019073
:1020F0000198B0F5805F02D200200090F1E702B0B5
:10210000704780B501000020FFF731FD01BD2DE9CA
:10211000F043ADF5137D0700884616001C00002033
:10212000ADF802000020ADF8000000200290002071
:10213000ADF804000020ADF806004046FEF766FF4B
:102140000290DFF880532888002801D02869804752
:10215000DFF874030078002800F033812888002815
:1021600000F01181BDF90600411CADF806103A00DF
:10217000010089B20020EB68984747464046FEF7C9
:1021800045FF02906888A97990FBF1F0ADF8040052
:102190003800471C00780028FAD10020ADF8000074
:1021A0000EE07F1E38782F2802D038785C2804D1C2
:1021B000BDF80000401CADF800000298401E0290DF
:1021C000BDF80000022802DA02980028E9D502983A
:1021D000002806D47A1CDFF8F41253A800F08CFC17
:1021E0000EE0BDF80000002805D13A00B84953A818
:1021F00000F082FC04E03A00B44953A800F07CFCF3
:102200000020ADF8020042E0BDF80010BDF800204B
:10221000BDF8023053AF9BB2BDF90400434313FA3B
:1022200082F0385C43AA89B25054BDF80000401CCB
:10223000ADF80000BDF8000080B2BDF9041088427E
:102240000EDA53A8FEF7E2FEBDF80020BDF802301A
:102250009BB2BDF904104B4313FA82F18842D3D2EA
:10226000002043A9BDF800208854BDF90600411C98
:10227000ADF8061043AAE97911FB00F189B20020FC
:10228000EB689847BDF80200401CADF80200BDF8AD
:10229000027053A8FEF7BAFEBDF90410B0FBF1F0CE
:1022A000401CBFB2874203D20020ADF80000C1E756
:1022B0003200884953A800F01FFCBDF90600411CFC
:1022C000ADF8061053AAE97911FB00F189B200209C
:1022D000EB689847002C74D00020ADF8020041E074
:1022E000BDF80010BDF80020BDF802309BB2BDF96A
:1022F0000400434313FA82F0205C43AA89B250548D
:10230000BDF80000401CADF80000BDF8000080B230
:10231000BDF9041088420EDA2000FEF777FEBDF802
:102320000020BDF802309BB2BDF904104B4313FAF4
:1023300082F18842D4D2002043A9BDF800208854FD
:10234000BDF90600411CADF8061043AAE97911FB5E
:1023500000F189B20020EB689847BDF80200401CEC
:10236000ADF80200BDF802602000FEF74FFEBDF997
:102370000410B0FBF1F0401CB6B2864221D200201E
:10238000ADF80000C1E74FF4807100220DF10C0997
:10239000484600F0B7F83800A9688847002C07D0F5
:1023A0000094330042464C4903A800F0A5FB05E029
:1023B00033004246494903A800F09EFB03A8A968E0
:1023C00088470DF5137DBDE8F08310B51400220099
:1023D000D2B20020FFF7BCFB200010BD38B50C00C6
:1023E0001500C0B2002803D13E480078002800D173
:1023F00031BD3D490878002800D0FEE70878401C30
:10240000087000F051FB00232A0021003748FFF735
:102410007EFEFFF75BFEF6E710B514001A00C0B2AF
:10242000002808D128480078002804D00B0021009B
:102430002F48FFF76CFE10BD002101804FF6FF71A1
:1024400041808180FF218171C17100218160002163
:10245000C1600021016170471A4902880A804288E0
:102460004A8082888A8082798A71C279CA71826838
:102470008A60C268CA600069086101201249087058
:10248000704700B585B06846FFF7D6FF194802903F
:102490006846FFF7E1FF05B000BD80B5FFF7F1FF2B
:1024A000002300225FF4E1310020FFF70FFD4023FD
:1024B000114A00210A4800F044FD01210020FFF7E5
:1024C0002CFC01BDC80E0228330F022868670810D3
:1024D0003C670810746708105C660810F8660810FE
:1024E000980E022886070228340F02284C6708102D
:1024F0008067081003210810B80D0228002200F0A0
:102500003FBD000062F30F2262F31F42401810F03B
:10251000030308D0C91A1FD3DB0748BF00F8012DF9
:1025200028BF20F8022D130030B414461546103988
:1025300028BF20E93C00FAD8490728BF20E90C0051
:1025400048BF40F8042D890028BF20F8022D48BF5D
:1025500000F8012D30BC7047C91818BF00F8012DD4
:10256000CB0728BF00F8012D7047000030B4614B45
:102570001818C009604C14EB001404290DD223680C
:102580001F25C8008540AB43D2B212F01F02C9001C
:1025900012FA01F1194321600CE0091F63681F253D
:1025A000C8008540AB43D2B212F01F02C9008A4076
:1025B0001A43626030BC7047002A04D1012212FA2B
:1025C00001F1416003E0012212FA01F181607047DC
:1025D00010B48900436C0F248C40A34312F00F0207
:1025E00012FA01F11943416410BC704710B4836CB6
:1025F00001248C40A34312F0010212FA01F11943A5
:10260000816410BC704710B4C36C01248C40A34398
:1026100012F0010212FA01F11943C16410BC7047B3
:1026200010B449001031C36C03248C40A34312F052
:10263000030212FA01F11943C16410BC70474269E8
:10264000012212FA01F141614069704710B48369B7
:1026500001248C40A34312F0010212FA01F1194344
:10266000816110BC704710B44900036C03248C4096
:10267000A34312F0030212FA01F11943016410BCE2
:102680007047F8B505000E0014000027002D2ED06D
:10269000002C2CD0226831002800FFF78DFF227A11
:1026A00031002800FFF762FF626931002800FFF760
:1026B0009DFFA26931002800FFF7A5FFE269310004
:1026C0002800FFF7ADFF626831002800FFF780FFA8
:1026D000E26831002800FFF7C6FF31002800FFF74D
:1026E000AEFF226931002800FFF7B0FF00E0034F82
:1026F0003800F2BD0000CFBF0000304001005A009A
:102700002DE9F44FDFF8D822DFF8D8321B68DFF864
:10271000D8422468DFF8D4522D68DFF8D4623668D6
:10272000DFF8D0723F68DFF8D0C2DCF800C0DFF815
:10273000CCE2DEF800E0DFF8C882D8F80080DFF8ED
:10274000C492D9F80090DFF8C0A2DAF800A00028FF
:1027500000F01581002900F012810A68022A06D1D2
:1027600091F82620002A02D15FF0000B03E0D1F897
:1027700004B0BBF1010B91F82420002A01D0012202
:1027800000E0002262F3104333F440436BF3030391
:10279000022262F3196303600A7812F0030262F303
:1027A0001964046491F82520002A01D0012200E078
:1027B000002262F38615CA7E002A01D0012200E0C1
:1027C000002262F38A254A7E002A01D0012200E01D
:1027D000002262F308258A7E002A01D0012200E04F
:1027E000002262F349258A6B521E12F00F0262F337
:1027F00013450A69521E12F00702ED08ED00154359
:102800004A6962F304154A69520862F34515856402
:102810000A7B002A01D0012200E0002262F3082690
:102820000A7E002A01D0012200E0002262F349263C
:102830008A68521E12F01F02760976011643C0F80C
:1028400000630A7F02F0FF023F0A3F02174391F83C
:10285000202002F0FF0262F31747C0F8107391F8CE
:102860002720002A01D0012200E0002262F3082C78
:102870000A69521E12F007025FEADC0C5FEACC0C18
:1028800052EA0C0C4A6962F3041C4A69520862F36A
:10289000451CC0F844C00A7B002A01D0012200E098
:1028A000002262F3082E8A68521E12F01F025FEAAD
:1028B0005E1E5FEA4E1E52EA0E0E0A68012A01D120
:1028C000012200E0002262F3104EC0F800E291F80D
:1028D0003C2002F0FF025FEA18285FEA082852EA6B
:1028E0000808C0F8048391F82820002A01D00122AA
:1028F00000E0002262F35969CA6A012A01D101226B
:1029000000E0002262F318694A6B012A01D1012319
:1029100000E00023009A63F3104991F8303003F08F
:10292000FF035FEA19295FEA092953EA0909C0F898
:10293000509091F8443003F0FF035FEA1A2A5FEAEF
:102940000A2A53EA0A0AC0F804A28B6CC0F8883F2E
:10295000096CC0F8C81F002A10D000205060002069
:102960001060002090600020D060002010620020E5
:10297000D06200201063DFF8940050630022100042
:10298000BDE8F28FDFF8881001605FF44011016448
:102990000021816440F20711C0F800130022C0F842
:1029A00004230022C0F8102300224264C0F8001261
:1029B0000021C0F80412002101650021C0F8C81EE2
:1029C0000021C0F8881E0021C0F8C81F0021C0F8EF
:1029D000881F0021C0F8081F0021C0F8481F704759
:1029E0000160AA00C0670810C4670810C867081013
:1029F000CC670810D0670810D4670810D867081093
:102A0000DC670810E0670810E4670810EFCDAB0042
:102A10000F000003010009B2002908D4012210F0C0
:102A20001F018A401B4900B2400941F8202070472D
:102A3000010009B2002908D4012210F01F018A40C8
:102A4000154900B2400941F820207047020012B237
:102A5000002A04D44901114A00B2115407E0490187
:102A60000F4A00B210F00F00104400F8041C704729
:102A7000002800D162B60B480168491C016070470C
:102A800072B608490868002802D00868401E08602D
:102A90000868704700E100E080E200E000E400E048
:102AA00018ED00E0180F022880B5FFF7E9FF00F0ED
:102AB00081FA01BD80B5C9B200B2FFF7C7FF01BD01
:102AC00070B504000D001600200000F083FA290004
:102AD000B4F9000000F0BDFA3100C9B2B4F9020047
:102AE000FFF7E8FFB4F90200FFF7A2FFB4F9020014
:102AF000FFF790FF70BD00000CB430B583B00A46FC
:102B000006A90291044600250194009502AB01A993
:102B1000084878441E30FDF7B6FA019A157000286F
:102B20004EBF04460198041B204603B030BC5DF83C
:102B30000CFB00BF8FE4FFFF82688918816003E00F
:102B400082684169521A8260816842699142F7D273
:102B50007047C2688918C16003E0C2684169521AAF
:102B6000C260C16842699142F7D2704770B50400F3
:102B7000002C01D0012000E000205422DFF8FC13DB
:102B8000C0B2FFF72BFC0025207850F00100207028
:102B90000020A0600020E06060692061607800286B
:102BA00003D0022810D007D315E0616900226668BF
:102BB0003000FFF7A7FC0EE061694900002266685B
:102BC0003000FFF79FFC06E061698900002266681B
:102BD0003000FFF797FC002020702800C0B270BDC5
:102BE00010B50400002C01D0012000E0002070226C
:102BF000DFF88813C0B2FFF7F1FB60692169401A62
:102C000010BD2DE9F84305001600002D01D001206C
:102C100000E000200C00AA22DFF86013C0B2FFF72A
:102C2000DDFB00270020002C01D10327B5E0287828
:102C300010F0050F01D00427AFE0287850F0040011
:102C400028702869B042C0F0A380D5F81480A86825
:102C5000B8EB0008B04567D26878002803D0022896
:102C600041D01FD390E0424621006868AB6800EB7A
:102C700003094846FEF712FA41462800FFF75CFFB9
:102C8000B6EB080204EB08016868AB6800EB0304CC
:102C90002000FEF703FAB6EB080841462800FFF7CC
:102CA0004BFF71E05FEA480221006868AB6800EB07
:102CB00043094846FEF7F2F941462800FFF73CFF7A
:102CC000B6EB0802520004EB48016868AB6800EB01
:102CD00043042000FEF7E2F9B6EB0808414628005D
:102CE000FFF72AFF50E05FEA880221006868AB68BE
:102CF00000EB83094846FEF7D1F941462800FFF76B
:102D00001BFFB6EB0802920004EB88016868AB6811
:102D100000EB83042000FEF7C1F9B6EB080841463A
:102D20002800FFF709FF2FE06878002803D0022869
:102D30001DD00ED328E0320021006868AB6800EB9C
:102D400003042000FEF7AAF931002800FFF7F4FE83
:102D50001AE0720021006868AB6800EB43042000B1
:102D6000FEF79CF931002800FFF7E6FE0CE0B20008
:102D700021006868AB6800EB83042000FEF78EF941
:102D800031002800FFF7D8FE2869861B2E6100E07D
:102D90000527287810F0FB0028703800C0B2BDE885
:102DA000F2832DE9F04705000E001F00002D01D031
:102DB000012000E000201400DFF8C08140F25B1227
:102DC0004146C0B2FFF70AFB002C01D0012000E011
:102DD00000204FF4AE724146C0B2FFF7FFFA5FF039
:102DE000000800200020002E02D15FF003088BE0D5
:102DF000297811F0030F03D020605FF006089CE0F3
:102E00002800FFF7EDFE2168884209D220605FF0BC
:102E10000708002804D1287810F0F70028708CE00B
:102E2000287850F008002870D5F81490E868B9EBBD
:102E300000092068814522D36878002803D0022841
:102E400013D008D35CE022686868E9680144300068
:102E5000FEF724F954E0226852006868E96800EB44
:102E600041013000FEF71AF94AE0226892006868D2
:102E7000E96800EB81013000FEF710F940E0687866
:102E8000002803D0022827D011D339E04A466868C9
:102E9000E9680144B2465046FEF700F92268B2EBF9
:102EA000090269684E443000FEF7F8F828E05FEA4E
:102EB00049026868E96800EB4101B2465046FEF7F6
:102EC000EDF82268B2EB09025200696806EB490688
:102ED0003000FEF7E3F813E05FEA89026868E9680A
:102EE00000EB8101B2465046FEF7D8F82268B2EBFB
:102EF00009029200696806EB89063000FEF7CEF8F9
:102F0000287810F0F7002870FFB2002F15D128782C
:102F10000B2802D15FF002080FE0287850F0020081
:102F2000287021682800FFF714FE296920684118DD
:102F30002961287810F0FD0028704046C0B2BDE835
:102F4000F087F8B504000E0017001D00002C01D01A
:102F5000012000E000204FF407720849C0B2FFF7DB
:102F60003DFA002067600021217066700021A16099
:102F70000021E16025616561C0B2F2BD24640810E2
:102F800000B500BF130096469446103928BFA0E84C
:102F90000C50FAD85FEA417C28BF0CC048BF40F80B
:102FA000042BC90728BF20F8022B48BF00F8012BCB
:102FB00000BD0000002007E00549C2018A5822F048
:102FC0000042C301CA50401C3F28F5DB7047000097
:102FD0000000584030B40021234A1368234A146883
:102FE000002832D0224A1568C5F303250E2D0FD0D4
:102FF0001268C2F303220D2A28D1827812F00F0240
:103000002409240114430279002A15D0012214E076
:10301000827812F00F021B091B0113430279002A68
:1030200001D0012200E0002262F3DF73114AB0F9FF
:10303000000042F8203009E0002262F3DF740E4AFB
:10304000B0F9000042F8204000E00649080030BC1A
:1030500070470A4B1A68002A03D01A6800B242F877
:103060002010704701005600E8670810EC67081050
:103070000000204000A0204000C02040EC060228B4
:10308000DFF8C4110868C0F34000002801D0022016
:1030900002E0086810F001007047DFF8B001006836
:1030A00010F0010070470000C21E022A01D3012067
:1030B00002E0C01E0860002070471CB5FF2469466E
:1030C000FFF7F2FFC0B2002802D02000C0B207E034
:1030D000DFF8FC01009950F8210010F00100C0B2A7
:1030E00016BD0000002801D0032801D3012002E012
:1030F000401E0860002070471CB5FF246946FFF79A
:10310000F1FFC0B2002802D02000C0B208E0DFF812
:10311000C401009909010844C06810F00100C0B260
:1031200016BD0000DFF8BC010068800810F0010047
:10313000704738B504002000C0B2082811D3DFF86A
:1031400098511822DFF89411280000F00DFC00209F
:10315000E87540F65B00DFF888110860002000F099
:103160003BFCDFF8CC112000C0B251F82000C0F3C6
:103170000020002805D0E4B251F8240010F00F0020
:1031800000E0FF2032BD38B504002000C0B208289E
:1031900011D3DFF844511822DFF84011280000F065
:1031A000E3FB0020E8754FF40960DFF83411086094
:1031B000002000F011FCDFF87801E4B250F82400A0
:1031C000C0F30110C0B232BDDFF868211368C3F349
:1031D000072303601068C0F3C40008607047DFF87D
:1031E00058211368C3F3072303601068C0F3C400B9
:1031F0000860704738B50400072C11D3DFF8D850A9
:103200001822DFF8C411280000F0AEFB0020E8759A
:103210004FF4CE70DFF8C8100860002000F0DCFB2F
:10322000DFF8A00150F8240010F00700010009B2F7
:10323000042907D1DFF8880150F8240010F01F009E
:1032400050F4807000B232BD24152640401526404F
:10325000DFF8B01209688A03920B0260090E11F0C0
:103260000101C171DFF8A01209680A00D204D20C72
:1032700082800A00120C02F0FF020281090C01F0A8
:10328000FF014181DFF84411096811F00F02027358
:103290000A00C2F3031242730A00120AD204D20CCB
:1032A000C281090F11F003010174DFF8641309688A
:1032B0000A00120A12F0070282710A00120CD205EB
:1032C000D20D4282890F11F0010101757047000093
:1032D0004016264000192640800E0228B0620810D1
:1032E000FC0E0228100027401CB50C006946FFF7B1
:1032F000DBFE0100C9B2002901D0C0B217E0DFF83F
:10330000B404009950F8210010F07F012160C0F34F
:1033100004216160C0F30441A1600100090F11F0B4
:1033200003016173C00E10F001002073002016BD70
:103330004012264008002040080420401CB50C0024
:103340006946FFF7CFFE0100C9B2002901D0C0B223
:1033500035E0DFF8101500980001085800F0FF0272
:103360002260C0F304226260C0F30442A260000F36
:1033700010F0030020730098000108444268100018
:10338000C00F6073C2F30270002801D0012000E07A
:103390000020A07322F07F422261009800010844BF
:1033A00080680100C90F21750100090E11F00101AB
:1033B0006175A075000C10F00700E075002016BDC7
:1033C0000001264000122640F462081038152640FD
:1033D00080B50100DFF868051822FDF76FFE0120B7
:1033E000DFF860150870002002BDDFF85C15096881
:1033F000C90F002908D0DFF84C150978002907D13A
:103400000021016003207047002101600320FAE7DA
:10341000DFF82C15096801600020F4E710B50400FE
:10342000FFF72EFE002803D10020206003200DE0CE
:10343000DFF810050078002805D0DFF80405806863
:103440002060002002E000202060032010BD00006A
:10345000DFF8F0140978002905D0DFF8E414496892
:103460000160002002E00021016003207047DFF8C6
:10347000DC140968C90F002908D0DFF8C8140978DE
:10348000002907D10021016003207047002101605D
:103490000320FAE7DFF8A814C96801600020F4E708
:1034A000DFF8AC140968C90F002908D0DFF89414BC
:1034B0000978002907D1002101600320704700210D
:1034C00001600320FAE7DFF8781409690160002041
:1034D000F4E710B50400FFF725FE002803D1002013
:1034E000206003200DE0DFF85C040078002805D0A0
:1034F000DFF84C0440692060002002E000202060DA
:10350000032010BD301526403415264010B50C00A0
:10351000C0B2FFF76FFE00280ED0012810D002289D
:1035200012D0B0F5887F13D040F21111884213D029
:10353000B0F58A7F14D017E02000FFF756FF16E0A1
:103540002000FFF785FF12E02000FFF767FF0EE085
:103550002000FFF78CFF0AE02000FFF7BAFF06E02B
:103560002000FFF79DFF02E000202060032010BD37
:1035700080B501000020FFF7C9FF02BD80B503221E
:10358000D2B2824203D200200860012003E0401C36
:10359000C0B2FFF7BBFF02BD18B587B00400684694
:1035A000FFF7E6FF0100C9B2002903D00021216026
:1035B000C0B22BE001A8FFF74BFE9DF814000228D3
:1035C00003D100982060002020E0DFF88803006825
:1035D000C00F002808D0FFF760FDC0B2002807D157
:1035E00000202060032011E00098206000200DE002
:1035F000009901984143BDF80800B1FBF0F09DF837
:103600000B10491CB0FBF1F02060002008B010BD89
:103610003C152640F0B58BB005000C00694628002B
:10362000C0B2FFF7ABFF0100C9B2002903D00021EF
:103630002160C0B2BCE02800C0B202284CD307A968
:103640002800C0B2401CFFF74FFEC0B2002811D0C6
:10365000DFF804631822DFF80413300000F084F967
:103660000020F07540F66310DFF8F41208600020C7
:1036700000F0B2F94F482900C9B200EB810050F8C0
:10368000080CC00F002807D09DF82900022807D198
:103690000098206000208BE000982060002087E0E8
:1036A000EDB26D1C2800FFF708FD0100C9B200292A
:1036B00002D0C0B2FF2803D100202060032077E0B1
:1036C0000099079841430898B1FBF0F00999B0FBC5
:1036D000F1F0206000206BE001A92800C0B2401C7E
:1036E000FFF72CFEC0B2002811D0DFF86C62182260
:1036F000DFF86812300000F037F90020F07540F66E
:103700007F10DFF85C120860002000F065F9554872
:103710002900C9B209014058C00F002807D09DF800
:103720001000022807D100982060002040E0009897
:10373000206000203CE0EDB26D1C2800FFF7DCFCAF
:103740000100C9B2002902D0C0B2FF2803D1002075
:10375000206003202CE09DF8110001281DD1009A63
:103760000023019E00273F0647EA162736060598E4
:10377000002136184F41A6FB020106FB031107FB8F
:103780000211029A039BA3FB0223FDF701FE000E28
:1037900040EA0120090E206009E0009901984143A8
:1037A0000298B1FBF0F00399B0FBF1F0206000202B
:1037B0000BB0F0BD0016264010B50323421E0400D6
:1037C000E4B2002C03D10800FFF7E6FE0CE0140081
:1037D000DBB2E4B2A34204D31000C0B2FFF71AFF79
:1037E00002E0C0B2FFF792FE10BD38B505000C0034
:1037F0002800C0B2FFF79DFC0100C9B2FF2904D127
:103800002000FFF7F2FDC0B21BE06946C0B2FFF72F
:10381000D3FF0100C9B2002903D000212160C0B24A
:103820000FE02800C0B2FFF7AEFCC0B2002805D000
:1038300002280BD006D303280CD00FE0009820609C
:10384000002032BD009840082060F9E70098800809
:103850002060F5E70098C0082060F1E700202060B4
:103860000320EEE7001926401FB5040002A901203D
:10387000FFF7BBFF0100C9B2002903D0002121607E
:10388000C0B21AE0694601A8FFF79EFC019800212A
:10389000421C71F1FF335B0143EAD263520100988D
:1038A000002112184B4102980021490141EAD061E0
:1038B0004001FDF76DFD2060002004B010BD1FB574
:1038C000040002A90120FFF790FF0100C9B20029FE
:1038D00003D000212160C0B21AE0694601A8FFF7B9
:1038E0007EFC01980021421C71F1FF335B0143EA29
:1038F000D26352010098002112184B410298002116
:10390000490141EAD0614001FDF742FD20600020FD
:1039100004B010BD80B5DFF84C100A68C2F3032272
:103920000E2A07D00968C1F303210D2905D1FFF73D
:10393000C6FF02BDFFF798FFFBE70120F9E7000093
:10394000680E02282E0F022818152640081526405A
:103950000C15264030152640800E0228F46208100F
:10396000FC0E02280000204001B58B071AD1830706
:1039700024D1121F21D351F8043BA3F1013C2CEABE
:10398000030C1CF0803C04BF40F8043BF1E79CFAB8
:103990008CFCBCFA8CF1C1F118018B40CB4040F893
:1039A000043B13E0042A09D311F8013B521E00F82E
:1039B000013B5BB18B07F7D1D9E7121D5AB111F862
:1039C000013B521E00F8013B03B1F8D111001CBFAE
:1039D0000022FEF79BFD01BD01BEFEE780B5234A34
:1039E00023490B6893423ED00A60224A12684A6219
:1039F000214A8A6202684A6042688A608268CA60B4
:103A0000C2680A6102694A6142698A618269CA615F
:103A1000C2690A62F1EE102A12F0900F23D0174A01
:103A20008A62026ACA62426A0A63826A4A63C26A34
:103A30008A63026BCA63426B0A64826B4A64C26B1C
:103A40008A64026CCA64426C0A65826C4A65C26C04
:103A50008A65026DCA65426D0A66826D4A66C26DEC
:103A60008A66006EC86600F00BF801BDFAF9F8F737
:103A7000900C022828ED00E0A4A3A2A1ABAAA9A85B
:103A8000FEE700001CB50400002C01D0012000E07E
:103A900000204122DFF88C15C0B2FEF79FFCDFF852
:103AA000880501212278D21010EBC212237813F07E
:103AB000070311FA03F313602279D21010EBC2103E
:103AC000227912F0070211FA02F20260E068009017
:103AD0000098421E00920028FAD1DFF85025207984
:103AE000C01012EBC010237913F0070311FA03F38F
:103AF0000360E06800900098431E00930028FAD10C
:103B00002078C01012EBC012207810F0070081401E
:103B10001160E06800900098411E00910028FAD1E1
:103B200013BD1CB50400002C01D0012000E00020D2
:103B30005522DFF8F014C0B2FEF750FCDFF8EC04B9
:103B400001212279D21010EBC212237913F007035E
:103B500011FA03F313602278D21010EBC21022780E
:103B600012F0070211FA02F20260E0680090009879
:103B7000421E00920028FAD1DFF8AC242078C01051
:103B800012EBC010237813F0070311FA03F303605C
:103B9000E06800900098431E00930028FAD1207935
:103BA000C01012EBC012207910F0070081401160A4
:103BB000E06800900098411E00910028FAD113BDE2
:103BC00038B504000D00002C01D0012000E00020D9
:103BD0006A22DFF85014C0B2FEF700FCDFF84C1484
:103BE00001222078C01011EBC010237813F00703D6
:103BF00012FA03F30360EDB2002D0CD02079C0104F
:103C0000DFF8243413EBC013207910F0070012FA08
:103C100000F0186009E02079C01011EBC010237982
:103C200013F0070312FA03F30360E06800900098B2
:103C3000431E00930028FAD1DFF8EC332078C0103F
:103C400013EBC010257815F0070512FA05F505608D
:103C5000E06800900098451E00950028FAD1207871
:103C6000C01011EBC011207810F0070012FA00F01C
:103C700008602079C01013EBC013207910F0070002
:103C800082401A6031BD2DE9FC410400002C01D0B6
:103C9000012000E000208622DFF88813C0B2FEF782
:103CA0009DFB0025DFF8886301272078C01016EB04
:103CB000C010217811F0070117FA01F10160DFF857
:103CC00068832079C01018EBC010217911F007012A
:103CD00017FA01F10160002200216068C0B200F013
:103CE0006DFAE06800900098411E00910028FAD11A
:103CF0002078C01018EBC018207810F0070017FAD1
:103D000000F0C8F80000E06800900098411E0091A3
:103D10000028FAD16068C0B200F03FFA002800D055
:103D200001252078C01016EBC016207810F007008F
:103D300087403760032201216068C0B200F03EFA7C
:103D4000E06800900098411E00910028FAD12800F8
:103D5000C0B2BDE8F6817CB504000D00002C01D096
:103D6000012000E00020A822DFF8B812C0B2FEF760
:103D700035FB80210800C0B200284ED02800C0B218
:103D800008420CD00120227912F0070290402279DB
:103D9000D210DFF8943213EBC21318600BE001204D
:103DA000227912F0070290402279D210DFF8803297
:103DB00013EBC2131860C9B24908E06840080090CC
:103DC0000098421E00920028FAD10122207810F0BB
:103DD000070012FA00F02378DB10DFF84C6216EBD4
:103DE000C3163060E06800900098431E00930028DE
:103DF000FAD1207810F0070082402078C010DFF858
:103E0000303213EBC0131A60E0684008009000984D
:103E1000421E00920028FAD1ACE72000FFF733FFE2
:103E2000012801D1002000E00120C0B276BD2DE9BB
:103E3000FC4704000D00002C01D0012000E0002010
:103E4000C222DFF8E011C0B2FEF7C8FA0026082748
:103E5000DFF8D8815FF001092078C01018EBC0109E
:103E6000217811F0070119FA01F10160E068009072
:103E70000098411E00910028FAD1DFF8ACA120790A
:103E8000C0101AEBC010217911F0070119FA01F1E5
:103E90000160002200216068C0B200F08FF927E0C5
:103EA0002078C01018EBC010217811F0070119FA22
:103EB00001F10160E06800900098411E0091002827
:103EC000FAD12078C0101AEBC010217811F0070148
:103ED00019FA01F10160E06800900098411E00911C
:103EE0000028FAD16068C0B200F057F950EA4606DF
:103EF0003800471EC0B20028D2D12078C01018EB7D
:103F0000C018207810F0070019FA00F9C8F80090DE
:103F1000032201216068C0B200F050F9E06800900F
:103F20000098411E00910028FAD12900C9B2200052
:103F3000FFF746FE3000C0B2BDE8F68770B504005A
:103F40000D001600002C01D0012000E000204FF4ED
:103F50009C72DFF8D010C0B2FEF740FA2000FFF7E5
:103F600091FD217A4900C9B22000FFF7F4FE290033
:103F7000C9B22000FFF7EFFE3100C9B22000FFF701
:103F8000EAFE2000FFF7CDFD70BD2DE9F0410500F0
:103F90000F0016001C00002D01D0012000E00020C1
:103FA000DFF880804FF4FF724146C0B2FEF716FA88
:103FB000002E01D0012000E0002040F2FF12414617
:103FC000C0B2FEF70BFA2800FFF75CFD297A490022
:103FD000C9B22800FFF7BFFE3900C9B22800FFF7B9
:103FE000BAFE2800FFF74EFD297A490051F0010181
:103FF000C9B22800FFF7AFFE0BE0002104E0370054
:104000007E1C002CF9D10121C9B22800FFF70FFF57
:1040100038702000441E0028F1D12800FFF781FDF0
:10402000BDE8F081B463081008003140040031405D
:104030000400314038B504000D00002C01D00120EF
:1040400000E0002040F29F223349C0B2FEF7C6F9DB
:1040500000202000FFF716FD217A4900C9B2200098
:10406000FFF779FE2900C9B22000FFF774FE200097
:10407000FFF757FD2000FFF705FD217A490051F0B9
:104080000101C9B22000FFF766FE01212000FFF701
:10409000CEFE05002000FFF744FD2800C0B232BD6F
:1040A0002DE9F843040088461700002C01D00120B8
:1040B00000E00020089D1E00DFF85C9040F2BA226C
:1040C0004946C0B2FEF78AF930002900C0B2C9B231
:1040D000884201D0012000E0002040F2BB22494686
:1040E000C0B2FEF77BF93000C0B220602800C0B239
:1040F000606084F80880E76003230122012130001A
:10410000C0B200F082F80323012201212800C0B2CE
:1041100000F07BF8BDE8F183B46308100069C84083
:1041200010F001007047012212FA01F1816070471E
:10413000012212FA01F14160704710B48900436C0A
:104140000F248C40A34312F00F0212FA01F119431D
:10415000416410BC704780B5C9B200290ED001007F
:10416000C9B2082291FBF2F302FB1311494AC0B213
:10417000C010C0011044FFF7D6FF0DE00100C9B226
:10418000082291FBF2F302FB1311424AC0B2C010A5
:10419000C0011044FFF7CCFF01BD80B50100C9B2DA
:1041A000082291FBF2F302FB13113A4AC0B2C0108D
:1041B000C0011044FFF7B2FFC0B202BD10B5C9B2D2
:1041C00000290BD1D2B2002A02D0022A02D003E089
:1041D0000F220BE00B2209E00A2207E0D2B2042AE8
:1041E00001D10C2200E00E2212F007020100C9B238
:1041F000082391FBF3F403FB1411264BC0B2C0104B
:10420000C0011844FFF799FF10BD2DE9F8418DB0AA
:1042100004000E0015001F0034210022E84640462D
:10422000FEF770F9F6B2002E0ED1FFB2002F02D0C9
:10423000022F03D005E00F2001900DE0082001902F
:104240000AE00820019007E0FFB2042F02D10F20FE
:10425000019001E00E2001902000C0B2C0280FD0D4
:104260002100C9B208206A4691FBF0F300FB13114C
:1042700008482300DBB2DB10DB011844FEF701FA2B
:104280002900C9B22000C0B2FFF765FF0EB0BDE83B
:10429000F081000000003140B4EE600AF1EE10FA47
:1042A00002D5B0EE600A07E0B4EE401AF1EE10FA63
:1042B00002D5B0EE410AFFE77047DFF83004002175
:1042C000C1620021016300214163704710B5DFF82E
:1042D0001C4494ED000AD4ED000A20EE200AD4ED2F
:1042E000010A94ED011A00EE810AD4ED020A94ED60
:1042F000021A00EE810AD4ED030A94ED031A00EECF
:10430000810A00F0F5F9DFED860AB4EE600AF1EEFD
:1043100010FA1CDBF7EE000A80EE800AD4ED000AEA
:1043200060EE800AC4ED000AD4ED010A60EE800A56
:10433000C4ED010AD4ED020A60EE800AC4ED020A5F
:10434000D4ED030A20EE800A84ED030A0AE05FF050
:104350007E502060002060600020A0600020E060AF
:10436000FFF7ABFF10BD000010B52DED068BDF4C45
:1043700094ED008AD4ED018A94ED029AD4ED039A6B
:104380009FEDD7AAF0EE00AA28EEA80A09EE090AC6
:10439000F7EE000A40EE6A0A28EE280A09EE290A1A
:1043A00020EE2A0A00F0B4F920EE0A0A84ED050A8C
:1043B00028EE090A09EEE80A20EE2A0AB7EE001AEA
:1043C000FFEE000AFFF768FF00F0D8F920EE0A0AB6
:1043D00084ED040A29EE090A09EEA90AF7EE000A9B
:1043E00040EE6A0A28EE290A08EE890A20EE2A0A17
:1043F00000F08EF920EE0A0A84ED060A94ED040A14
:10440000D4ED070A30EE600A84ED090A94ED050A3E
:10441000D4ED080A30EE600A84ED0A0ABDEC068B82
:1044200010BD10B52DED048BF0EE408AB0EE609A11
:10443000B0EE418AF0EE480AB0EE490A00F068F9A1
:10444000F0EE409A29EE090A08EE080A00F050F949
:10445000F0EE400AB1EE680A00F05AF9F6EE000AF2
:1044600020EE208A69EEA08AB0EE480A00F09AFA9F
:10447000B0EE409AB0EE480A00F096FAB0EE408AEC
:10448000B0EE680A00F08EFAF0EE409AB0EE680ADC
:1044900000F08AFA954C69EE890AC4ED000A60EED4
:1044A000090AC4ED010A69EE880AC4ED020A20EE89
:1044B000480A84ED030AFFF700FFFFF707FF01201A
:1044C00084F83800FFF750FFBDEC048B10BD10B529
:1044D000864C5FF07E502060002060600020A0606D
:1044E0000020E06000202061002060610020A061C9
:1044F0000020E06100202062002060620020A062B5
:10450000FFF7DBFE002084F8380010BD7748016912
:10451000C1614169016200214162002181627047ED
:10452000BE37863538B52DED0A8BB0EE40BAB0EE09
:10453000609AF0EE419AF0EE428AB0EE628AF0EEB6
:1045400043AAF5EE40AAF1EE10FA40F2C680B0EEB2
:1045500061AA00242AEE0A0A08EEA80A08EE080A50
:1045600000F0C6F8DFED5F0AB4EE600AF1EE10FA73
:104570000ADBF7EE000A80EE800A2AEE00AA68EE57
:10458000808A28EE008A0124584D95F838000028CA
:104590000BD1E4B2002C07D0B0EE481AF0EE680A56
:1045A000B0EE4A0AFFF73DFF97E09FED4F0A2BEE72
:1045B00000BA29EE009A69EE809AE4B2002C4AD043
:1045C000F0EE00BA95ED010AD5ED030A20EE200ABF
:1045D000D5ED000A95ED021A00EEC10A20EE2B0A75
:1045E000D5ED000A95ED011A60EE810A95ED021AEB
:1045F000D5ED031A41EE210A60EEAB0A95ED001AE3
:10460000D5ED001A21EE211AD5ED011A95ED012AFA
:1046100001EEC21AD5ED021A95ED022A01EEC21A78
:10462000D5ED031A95ED032A01EE821A28EE81CA10
:1046300008EE60CA28EE008A0AEE418A2AEE20AA15
:1046400008EEC0AAFFF739FE0CEE2BBA08EE2B9A43
:104650004AEE2B9A01E0FFF730FE95ED000AD5ED0A
:10466000010A95ED021AD5ED031AB6EE002A2AEEDC
:10467000822A60EECB2A41EE492A41EEE92A95EDE5
:10468000003A02EE823A85ED003A60EE0B2A41EEE6
:10469000292A41EEC92A95ED013A02EE823A85EDCA
:1046A000013A60EE092A40EEE92A41EE8B2AD5ED67
:1046B000021A42EE821AC5ED021A20EE290A00EE15
:1046C000890A01EE4B0AD5ED030A40EE020AC5ED58
:1046D000030AFFF7FBFDFFF747FEBDEC0A8B31BD78
:1046E000E12E6542BE37863535FA8E3CF80D02283C
:1046F000B5EEC00AF1EE10FA02D4B1EEC00A70476E
:104700006FF0004C00EE10CAAFF30080704700005D
:1047100052EC101AB0EEC00AC80F49005200F0EE79
:10472000E00A28BF0C3011F1807F38BF12F1807F82
:104730000CD28A4238BF80F00400124214D034BF39
:1047400080EE800A80EE200A00F030B911F1807FFF
:1047500008BF80F0040098BF12F1807F08D88A4219
:1047600014BF00224FF07E5200EE102A00F01EB956
:104770006FF0004100EE101A7047000010EE101AA2
:104780004FF07E5201EE902AC80F31F0004120D048
:1047900000EE101A914212D871EEC00A0D4A31EEA5
:1047A000801A61EE200AF1EEE00A914286BF80F0A5
:1047B000040080EE800A80EE200A00F0F7B849007D
:1047C00011F1807F9CBF6FF0004100EE101AAFF333
:1047D00000807047F404353FDFED620A60EE200A86
:1047E00010EE902A22F0004101EE101ADFED5E1A61
:1047F000B4EE611AF1EE10FA25D54FF07C5102F0BB
:1048000000420A4301EE102A71EE200AFDEEE00A92
:1048100010EE901A00296AD0FAEEC90A9FED531AD9
:1048200000EE810ADFED521A00EEA10A9FED512A37
:1048300000EE820ADFED502A00EEA20A9FED4F1A29
:1048400000EE810A53E010EE101A4B001B1613F114
:10485000010F0AD14900081610F1010F02D1090217
:1048600040F07F809FED460A7047490004D1002840
:1048700077D0B7EE000A70474FF07C5102F000424B
:104880000A4301EE102A71EE200A10EE902A510020
:104890000DD0090EC1F196011829A8BF02F00042FF
:1048A00003DA0029C4BFCA408A4000EE902A10EE05
:1048B000901A490017D09FED331A20EE811ADFEDD0
:1048C0002B1A01EE210A9FED2A2A01EE020ADFEDE2
:1048D000292A01EE220A9FED283A01EE030ADFEDB4
:1048E000271A01EE210AFDEEE00A10EE901A01F0FF
:1048F0000301081810EE101A21F0004100EE901A82
:104900009FED211AF4EE410AF1EE10FA04D5C10729
:1049100023D5B7EE000A20E0C10760EE000A0ED5ED
:104920009FED1A0A9FED1A1A00EE801ADFED191A90
:1049300041EE201AB7EE000A01EEA00A0DE09FED4D
:10494000162ADFED161A40EE821ADFED152A20EE48
:10495000201A41EEA02A01EE220A800748BFB1EEDC
:10496000400A704783F9223F0000004F0000C9C68B
:1049700000A0FDC00020A2BA000034B30030C2AED7
:10498000FFFFFF7F00008038000080399349B2BAF2
:1049900036A02A3DDFFFFFBE6E8C4CB94283083C37
:1049A000A1AA2ABE012017E7002015E71AA210EEDF
:1049B000101A43F2A40CC3F6896CF2EC060A6145A6
:1049C00009DB00EE803A70EE800A83EE200A40F0A8
:1049D000020010EE101A4900D1F1E6410BD860EE4A
:1049E000000A20EE203A03EE010A01EEA02A42EE70
:1049F000202A80EE220A400810F0020F18BFB1EE04
:104A0000400A02EB8002D2ED000A30EE200A28BFF5
:104A1000B1EE400A70470000D7B3DD3F6AD5033FCF
:104A20002B94A93DB82A593F0000803F000080BF69
:104A300000000000920A063FDB0FC93F920A863F42
:104A4000DB0FC93F920A0640DB0F4940368D2740F5
:104A5000022801D3012010E00B00DBB2042B01DBA4
:104A600001200AE0DFF86C3303EB8000C9B2405C40
:104A7000824201D3012000E000207047F8B5060013
:104A80000F0015001C00022E01D301201DE02A009A
:104A90003900C9B23000FFF7DBFF012801D1012046
:104AA00013E03800C0B2002812D1B4F5807F0DD2D7
:104AB000DFF824037603304400EB850010F58050C6
:104AC000016864F30F2101600020F2BD0120FCE7C2
:104AD000FFB2012F11D1B4F5803F0CD2DFF8F802FC
:104AE0007603304400EB850010F5A050016864F3B4
:104AF00017210160E8E70120E7E70120E5E700B2C0
:104B00000012C0B27047F8B505000E00170028006B
:104B100000B2FFF7F4FF04002000C0B2022801D366
:104B2000012023E03A003100C9B22000C0B2FFF7F3
:104B30008FFF012801D1012018E0A7492000C0B251
:104B4000400308442A00D2B200EB8200D0F8000CE7
:104B5000F6B266F3092067F30700E4B26403214468
:104B6000EDB201EB8501C1F8000C0020F2BD70B57B
:104B700004000D001600022C01D301201CE03200BD
:104B80002900C9B22000FFF763FF012801D10120ED
:104B900012E091496003085850F0004050F0407016
:104BA00050F47F00EDB265F3092066F3070062035D
:104BB000885064030859002070BD80B50100C9B257
:104BC000032906DA8549C0B2C001084400F0DBF9C8
:104BD00007E08349C0B2C0010844B0F5C07000F0DE
:104BE000D2F901BD70B596B004000D00502100222D
:104BF00002AE3000FDF786FC00262000C0B203287C
:104C00006ADA002201212000C0B200F2711000B265
:104C1000FFF779FF2000C0B200F2711000B2FFF779
:104C20006EFF092300220121C0B2FFF727FF2000F9
:104C3000C0B200F2711000B2FFF761FF0022012143
:104C4000C0B2FFF794FF2000C0B210F5D570ADF8E8
:104C500000000220ADF8020001208DF804000322BC
:104C600060482100C9B250F821106846FDF728FFBE
:104C7000ED00029500208DF80C0000208DF80D004D
:104C800000208DF80E0000208DF8100003208DF814
:104C90004C000120149000208DF8540000208DF865
:104CA00055004E4D02A92000C0B2C001284400F0BA
:104CB0009BF82000C0B2C001284400F055F9200044
:104CC000C0B2C001284400F066F9E4B2E40105EB8B
:104CD000040000F052F97AE0002201212000C0B265
:104CE00010F5B17000B2FFF70EFF2000C0B210F552
:104CF000B17000B2FFF703FF092300220121C0B207
:104D0000FFF7BCFE2000C0B210F5B17000B2FFF793
:104D1000F6FE00220121C0B2FFF729FF2000C0B239
:104D200000F29B10ADF800000220ADF80200012057
:104D30008DF8040003222B482100C9B250F821103D
:104D40006846FDF7BDFEED00002005E0B5F5803FAB
:104D500001D3761C6D08401C0828F7DB02958DF8FE
:104D60000C6000208DF80D0000208DF80E00002052
:104D70008DF8100003208DF84C00012014900020C5
:104D80008DF8540000208DF85500154D02A9200023
:104D9000C0B2C0012844B0F5C07000F025F8200072
:104DA000C0B2C0012844B0F5C07000F0DDF82000AA
:104DB000C0B2C0012844B0F5C07000F0ECF8E4B215
:104DC000E40105EB0400B0F5C07000F0D6F816B0B1
:104DD00070BD0000986708100000044000005940B2
:104DE000008058401007022810B4012291F84C307E
:104DF000052B03D291F84D30052B01D31000A7E00D
:104E0000002800F0A480002900F0A180514A126817
:104E10004B7963F392428B7913F0030363F31142EE
:104E20000B7A13F0070363F31A62CB7963F39E7274
:104E30000B7D63F3000291F8243063F341020260BA
:104E40000A7910F130031C6862F307041C604A7988
:104E5000012A0BD18A79002A02D10022826007E060
:104E60008A79012A04D10A68826001E00122826005
:104E7000CA6802610A694261CA6982610A6AC261DA
:104E80000A680262344A12680B7E03F0FF03120ABA
:104E900012021A4391F8303003F0FF0363F3174214
:104EA00091F8403003F0FF0363F31F6291F848303C
:104EB00003F0FF0363F30F224264284A126891F85B
:104EC000383003F0FF03120A12021A4391F8283017
:104ED00003F0FF0363F30F228264214A12688B7D83
:104EE00013F00303920892001A4391F8253013F04F
:104EF000030363F38B2291F82C3013F0030363F365
:104F0000051291F8343013F0030363F3092291F88A
:104F10003C3013F0030363F3871291F8443013F02D
:104F2000030363F38302C2640E4A126891F84C30A3
:104F300013F00703D208D2001A4391F84D3013F052
:104F4000070363F306124265497D81670022100062
:104F500010BC7047F0670810F4670810F867081075
:104F6000FC67081000680810016851F000410160FA
:104F7000704781607047806870477830016851F0F1
:104F800001010160704710F170010A6852F00102DE
:104F90000A60006F70474030016851F010010160F5
:104FA000704700002DE9F84304000D0016000027AB
:104FB0005FF000086400DFF84493002217214846A0
:104FC000FEF7BCFF2200D2B215214846FEF7B6FF1D
:104FD0002A00D2B216214846FEF7B0FF3200D2B204
:104FE00021214846FEF7AAFF4C2214214846FEF72D
:104FF000A5FF02E0022000F04FFA22214846FFF709
:1050000019F8000607D4404610F1010880B2B0F547
:10501000807FEFDB01273800C0B2BDE8F28370B5B6
:1050200002000C0000255200B44E52F00102D2B230
:1050300015213000FEF782FF2200D2B21621300087
:10504000FEF77CFF012217213000FEF777FF4C228C
:1050500014213000FEF772FF02E0022000F01CFA7B
:1050600022213000FEF7E6FFC00705D42800451CCA
:1050700080B2B0F5807FF0DB02213000FEF7DAFF6E
:1050800070BD38B502000C0052009C4D52F0010278
:10509000D2B215212800FEF751FF2200D2B216210C
:1050A0002800FEF74BFF062217212800FEF746FFD7
:1050B0006C2214212800FEF741FF31BD70B5002499
:1050C0000025002607E00F218C48FEF7B3FF0500FE
:1050D0000A2000F0E1F9EDB26B2D06D03000461C3D
:1050E00080B2B0F5807FEEDB01242000C0B270BD3D
:1050F00070B500240025002607E00D210D20FFF7E4
:105100008EFF05000A2000F0C7F9EDB2FF2D06D092
:105110003000461C80B2B0F5807FEEDB0124200019
:10512000C0B270BDE0B506236A4628217348FEF779
:105130002CFF9DF801009DF8001051EA00217048F5
:1051400001809DF803009DF8021051EA00216D488E
:1051500001809DF805009DF8041051EA00216A487D
:10516000018007BDE0B506236A4622216348FEF7A9
:105170000CFF9DF801009DF8001051EA00216348E2
:1051800001809DF803009DF8021051EA002160485B
:1051900001809DF805009DF8041051EA00215D484A
:1051A000018007BD7CB500240A2000F075F9534D3D
:1051B000792000907A233B226B212800FEF770FFB4
:1051C000002201212800FEF7B9FE01221221280049
:1051D000FEF7B4FE022000F05FF900220121280052
:1051E000FEF7ACFEFFF76AFF002808D04FF4BD734E
:1051F000494A4A490020FDF70FF901247BE00322C8
:105200000D212800FEF79AFE3C2210212800FEF70F
:1052100095FE434E434830605C2211212800FEF782
:105220008DFE41487060442212212800FEF786FE60
:10523000022213212800FEF781FE002214212800FB
:10524000FEF77CFE002215212800FEF777FE0022E3
:1052500016212800FEF772FE012218212800FEF711
:105260006DFE402201212800FEF768FE80221421F5
:105270002800FEF763FE022000F00EF90022142140
:105280002800FEF75BFE022000F006F980220A21CA
:105290000D20FFF787FE022000F0FEF800220A2111
:1052A0000D20FFF77FFE022000F0F6F8FFF720FF49
:1052B000002808D040F2ED13174A1C490020FDF7E2
:1052C000ABF8012417E0192209210D20FFF76AFE2F
:1052D0001748B06001220B210D20FFF763FE00216B
:1052E0000D20FFF7CEFE002201212800FEF726FE4A
:1052F000142000F0D1F82000C0B276BDDC0E0228E8
:10530000280F02282A0F02282C0F0228220F022819
:10531000240F0228260F02287C630810B4640810AA
:10532000F006022800108045CDCC64416865081065
:1053300000803B45022801D301200FE00B00DBB2C7
:10534000042B01DB012009E0954B03EB8000C9B27F
:10535000405C824201D3012000E000207047F8B594
:1053600006000F0015001C00022E01D301201CE0D6
:105370002A003900C9B23000FFF7DCFF012801D153
:10538000012012E03800C0B2002811D1B4F5807FAE
:105390000CD284487603304400EB850010F5805031
:1053A000016864F30F2101600020F2BD0120FCE7D9
:1053B000FFB2012F10D1B4F5803F0BD279487603AC
:1053C000304400EB850010F5A050016864F317210C
:1053D0000160E9E70120E8E70120E6E700B20012FA
:1053E000C0B27047F8B505000E001700280000B2E3
:1053F000FFF7F4FF04002000C0B2022801D301200F
:1054000023E03A003100C9B22000C0B2FFF792FF9A
:10541000012801D1012018E062492000C0B24003F8
:1054200008442A00D2B200EB8200D0F8000CF6B299
:1054300066F3092067F30700E4B264032144EDB288
:1054400001EB8501C1F8000C0020F2BD70B504002D
:105450000D001600022C01D301201CE032002900AF
:10546000C9B22000FFF766FF012801D1012012E038
:105470004C496003085850F0004050F0407050F420
:105480007F00EDB265F3092066F3070062038850E0
:1054900064030859002070BDF8B504004FF4FA50B9
:1054A0004443414D414E00212878C0013044FFF76C
:1054B00060FD14E02878C0013044FFF75CFDB8427D
:1054C000F8D33B4F3C192878C0013044FFF753FD17
:1054D0003F1839002878C0013044FFF74AFD4CF2EC
:1054E0005137BC42E6D22878C0013044FFF743FD73
:1054F0008442F8D2F1BD38B594B0502100226C46F8
:105500002000FCF7FFFF2B4C00220121B4F9000022
:10551000FFF768FFB4F90000FFF760FF09230022DE
:105520000121C0B2FFF71BFFB4F90000FFF756FFDF
:1055300000220121C0B2FFF789FF5FF0FF30009029
:1055400000208DF8040000208DF8050000208DF863
:10555000060000208DF8080003208DF8440001208B
:10556000129001208DF807000F4C104D69462078ED
:10557000C0012844FFF738FC2078C0012844FFF719
:10558000F3FC00212078C0012844FFF7F2FC2078CA
:10559000C0012844FFF7FFFC15B030BD000000003B
:1055A000986708100000044087070228000059404F
:1055B000B03CFFFF8407022810B5FFF7F3FD04009D
:1055C0002100C9B2814800F01DF9814800F01AF9A4
:1055D000E4B2002C0BD17F4800F014F94FF47A703C
:1055E00000F026F801207C4981F8300006E07B4875
:1055F00000F008F90020784981F8300010BD80B52E
:10560000FFF790FDFFF7AEFD7348754909880180EB
:1056100074490988418074490988818073490988DF
:10562000C18073490988018172490988418101BD9E
:105630003EB50400684600210022002380E80E00E9
:105640006D4800F0DFF800253AE0FFF78BFD6B496D
:105650006648B0F9000000EE100AB8EEC00AD1EDBD
:10566000010A80EE200ADDED000A30EE200A8DED01
:10567000000A68465E4AB2F9002000EE102AB8EE31
:10568000C00AD1ED010A80EE200AD0ED010A30EE09
:10569000200A80ED010A574AB2F9002000EE102AD4
:1056A000B8EEC00AD1ED010A80EE200AD0ED020A60
:1056B00030EE200A80ED020A0120FFF7EDFE6D1C9E
:1056C0002800210080B289B28842BED3424920001E
:1056D00080B200EE100AB8EE400ADDED000A80EE5E
:1056E000800A81ED030A6846220092B200EE102A79
:1056F000B8EE400AD0ED010A80EE800A81ED040A7E
:10570000A4B200EE104AB8EE400AD0ED020A80EED4
:10571000800A81ED050A3A4800F074F837BD374831
:105720002D49B1F9002000EE102AB8EEC00AD0EDE4
:10573000000A80EE200A81ED090AB1F9022000EE8C
:10574000102AB8EEC00AD0ED000A80EE200A81EDE2
:105750000A0AB1F9042000EE102AB8EEC00AD0ED12
:10576000000A80EE200A81ED0B0AB1F9062000EE56
:10577000102AB8EEC00AD0ED010A80EE200AD1ED61
:10578000030A30EE600A81ED060AB1F9082000EE46
:10579000102AB8EEC00AD0ED010A80EE200AD1ED41
:1057A000040A30EE600A81ED070AB1F90A2000EE22
:1057B000102AB8EEC00AD0ED010A80EE200AD1ED21
:1057C000050A30EE600A81ED080A70472466081069
:1057D00040660810B0660810340E02288C64081069
:1057E000280F02282A0F02282C0F0228220F022835
:1057F000240F0228260F022848650810F006022808
:10580000286708100EB4C0B5024603A80021019015
:10581000009101AB0121044878440C30FAF733FCC5
:1058200006BC5DF810FB00BFE90E000038B500F0C3
:1058300077F900F042F800F0C9F871490868800370
:1058400012D4BFF34F8FBFF36F8F00206D4A1060EB
:10585000BFF34F8FBFF36F8F086850F400300860BC
:10586000BFF34F8FBFF36F8F0868C00324D40020AD
:10587000654A1060BFF34F8F64480268C2F34E332D
:10588000C2F3C90443F6E07010EA431050EA847092
:105890005F4D28602000441E0028F3D11800431EED
:1058A0000028EDD1BFF34F8F086850F480300860B6
:1058B000BFF34F8FBFF36F8F31BD70B586B06846B1
:1058C00054491822FBF7FAFB00200AE0694602005F
:1058D000D2B201EBC2014968491C11F0070F0DD18A
:1058E000401C0100C9B2032909D269460200D2B2A4
:1058F00011F8321011F0070FE8D0FEE7FEE7464C32
:10590000207810F0070F00D0FEE7444D2868401CB7
:1059100010F0070F00D0FEE7002622E068463100B5
:10592000C9B200EBC10041683000C0B252F830008B
:1059300000F043F814E000200028EFD02168491E51
:105940003000C0B252F8300000F037F8684631003D
:10595000C9B200EBC10041682868401C00F02DF876
:10596000761C3000C0B2032825D26A463000C0B28F
:1059700052F83000002813D020683100C9B252F824
:10598000311088420AD368463100C9B200EBC10029
:1059900040682168884201D30120CDE70020CBE791
:1059A00068463100C9B200EBC100406821688842F6
:1059B000C1D30120C0E706B070BD0022002302E081
:1059C000C0E9002308308842FAD3704730B4144845
:1059D00080081449144A002308E01C00E4B252F87D
:1059E00024401D00EDB241F825405B1C1C00050061
:1059F000E4B2EDB2AC42F0D30C48016030BC704769
:105A000014ED00E050EF00E084ED00E080ED00E0F8
:105A100060EF00E0C8660810A8620810AC620810C9
:105A200080000000800F02280000081008ED00E050
:105A300010B5002042490860BFF34F8F414801680C
:105A4000C1F34E32C1F3C90343F6E07010EA4210CD
:105A500050EA83703C4C20601800431E0028F3D1AC
:105A60001000421E0028EDD1BFF34F8FBFF36F8FA0
:105A7000BFF34F8FBFF36F8F002034490860BFF32F
:105A80004F8FBFF36F8F00F001F810BD38B586B0AF
:105A900068462F491822FBF711FB6846FDF798FC72
:105AA000C0B200280DD02B4C18222B492000FDF746
:105AB0005BFF0020E0754E20284908600020FDF7BC
:105AC0008BFF274D2800FDF725FFC0B200280DD021
:105AD000204C182220492000FDF746FF0020E075E9
