:020000041028C2
:1000000000000C28D91628102D1C2810A51A28101D
:10001000311C2810351C2810391C28100000000045
:100020000000000000000000000000007D1B281000
:100030003D1C281000000000411C2810451C281001
:100040005F15281085152810AB152810D11528101C
:10005000F71528101D1628104316281069162810A9
:10006000491C28104D1C2810511C2810551C281004
:10007000591C28105D1C2810611C2810651C2810B4
:10008000DFF8C4110868C0F34000002801D0022046
:1000900002E0086810F001007047DFF8B001006866
:1000A00010F0010070470000C21E022A01D3012097
:1000B00002E0C01E0860002070471CB5FF2469469E
:1000C000FFF7F2FFC0B2002802D02000C0B207E064
:1000D000DFF8FC01009950F8210010F00100C0B2D7
:1000E00016BD0000002801D0032801D3012002E042
:1000F000401E0860002070471CB5FF246946FFF7CA
:10010000F1FFC0B2002802D02000C0B208E0DFF842
:10011000C401009909010844C06810F00100C0B290
:1001200016BD0000DFF8BC010068800810F0010077
:10013000704738B504002000C0B2082811D3DFF89A
:1001400098511822DFF89411280000F00DFC0020CF
:10015000E87540F65B00DFF888110860002000F0C9
:100160003BFCDFF8CC112000C0B251F82000C0F3F6
:100170000020002805D0E4B251F8240010F00F0050
:1001800000E0FF2032BD38B504002000C0B20828CE
:1001900011D3DFF844511822DFF84011280000F095
:1001A000E3FB0020E8754FF40960DFF834110860C4
:1001B000002000F011FCDFF87801E4B250F82400D0
:1001C000C0F30110C0B232BDDFF868211368C3F379
:1001D000072303601068C0F3C40008607047DFF8AD
:1001E00058211368C3F3072303601068C0F3C400E9
:1001F0000860704738B50400072C11D3DFF8D850D9
:100200001822DFF8C411280000F0AEFB0020E875CA
:100210004FF4CE70DFF8C8100860002000F0DCFB5F
:10022000DFF8A00150F8240010F00700010009B227
:10023000042907D1DFF8880150F8240010F01F00CE
:1002400050F4807000B232BD24152640401526407F
:10025000DFF8B01209688A03920B0260090E11F0F0
:100260000101C171DFF8A01209680A00D204D20CA2
:1002700082800A00120C02F0FF020281090C01F0D8
:10028000FF014181DFF84411096811F00F02027388
:100290000A00C2F3031242730A00120AD204D20CFB
:1002A000C281090F11F003010174DFF864130968BA
:1002B0000A00120A12F0070282710A00120CD2051B
:1002C000D20D4282890F11F00101017570470000C3
:1002D0004016264000192640940708288C1828103C
:1002E000C0070828100027401CB50C006946FFF71E
:1002F000DBFE0100C9B2002901D0C0B217E0DFF86F
:10030000B404009950F8210010F07F012160C0F37F
:1003100004216160C0F30441A1600100090F11F0E4
:1003200003016173C00E10F001002073002016BDA0
:100330004012264008002040080420401CB50C0054
:100340006946FFF7CFFE0100C9B2002901D0C0B253
:1003500035E0DFF8101500980001085800F0FF02A2
:100360002260C0F304226260C0F30442A260000F66
:1003700010F0030020730098000108444268100048
:10038000C00F6073C2F30270002801D0012000E0AA
:100390000020A07322F07F422261009800010844EF
:1003A00080680100C90F21750100090E11F00101DB
:1003B0006175A075000C10F00700E075002016BDF7
:1003C0000001264000122640081928103815264042
:1003D00080B50100DFF86805182200F051FB01200C
:1003E000DFF860150870002002BDDFF85C150968B1
:1003F000C90F002908D0DFF84C150978002907D16A
:100400000021016003207047002101600320FAE70A
:10041000DFF82C15096801600020F4E710B504002E
:10042000FFF72EFE002803D10020206003200DE0FE
:10043000DFF810050078002805D0DFF80405806893
:100440002060002002E000202060032010BD00009A
:10045000DFF8F0140978002905D0DFF8E4144968C2
:100460000160002002E00021016003207047DFF8F6
:10047000DC140968C90F002908D0DFF8C81409780E
:10048000002907D10021016003207047002101608D
:100490000320FAE7DFF8A814C96801600020F4E738
:1004A000DFF8AC140968C90F002908D0DFF89414EC
:1004B0000978002907D1002101600320704700213D
:1004C00001600320FAE7DFF8781409690160002071
:1004D000F4E710B50400FFF725FE002803D1002043
:1004E000206003200DE0DFF85C040078002805D0D0
:1004F000DFF84C0440692060002002E0002020600A
:10050000032010BD301526403415264010B50C00D0
:10051000C0B2FFF76FFE00280ED0012810D00228CD
:1005200012D0B0F5887F13D040F21111884213D059
:10053000B0F58A7F14D017E02000FFF756FF16E0D1
:100540002000FFF785FF12E02000FFF767FF0EE0B5
:100550002000FFF78CFF0AE02000FFF7BAFF06E05B
:100560002000FFF79DFF02E000202060032010BD67
:1005700080B501000020FFF7C9FF02BD80B503224E
:10058000D2B2824203D200200860012003E0401C66
:10059000C0B2FFF7BBFF02BD18B587B004006846C4
:1005A000FFF7E6FF0100C9B2002903D00021216056
:1005B000C0B22BE001A8FFF74BFE9DF81400022803
:1005C00003D100982060002020E0DFF88803006855
:1005D000C00F002808D0FFF760FDC0B2002807D187
:1005E00000202060032011E00098206000200DE032
:1005F000009901984143BDF80800B1FBF0F09DF867
:100600000B10491CB0FBF1F02060002008B010BDB9
:100610003C152640F0B58BB005000C00694628005B
:10062000C0B2FFF7ABFF0100C9B2002903D000211F
:100630002160C0B2BCE02800C0B202284CD307A998
:100640002800C0B2401CFFF74FFEC0B2002811D0F6
:10065000DFF804631822DFF80413300000F084F997
:100660000020F07540F66310DFF8F41208600020F7
:1006700000F0B2F94F482900C9B200EB810050F8F0
:10068000080CC00F002807D09DF82900022807D1C8
:100690000098206000208BE000982060002087E018
:1006A000EDB26D1C2800FFF708FD0100C9B200295A
:1006B00002D0C0B2FF2803D100202060032077E0E1
:1006C0000099079841430898B1FBF0F00999B0FBF5
:1006D000F1F0206000206BE001A92800C0B2401CAE
:1006E000FFF72CFEC0B2002811D0DFF86C62182290
:1006F000DFF86812300000F037F90020F07540F69E
:100700007F10DFF85C120860002000F065F95548A2
:100710002900C9B209014058C00F002807D09DF830
:100720001000022807D100982060002040E00098C7
:10073000206000203CE0EDB26D1C2800FFF7DCFCDF
:100740000100C9B2002902D0C0B2FF2803D10020A5
:10075000206003202CE09DF8110001281DD1009A93
:100760000023019E00273F0647EA16273606059814
:10077000002136184F41A6FB020106FB031107FBBF
:100780000211029A039BA3FB022300F0FBF9000E67
:1007900040EA0120090E206009E0009901984143D8
:1007A0000298B1FBF0F00399B0FBF1F0206000205B
:1007B0000BB0F0BD0016264010B50323421E040006
:1007C000E4B2002C03D10800FFF7E6FE0CE01400B1
:1007D000DBB2E4B2A34204D31000C0B2FFF71AFFA9
:1007E00002E0C0B2FFF792FE10BD38B505000C0064
:1007F0002800C0B2FFF79DFC0100C9B2FF2904D157
:100800002000FFF7F2FDC0B21BE06946C0B2FFF75F
:10081000D3FF0100C9B2002903D000212160C0B27A
:100820000FE02800C0B2FFF7AEFCC0B2002805D030
:1008300002280BD006D303280CD00FE000982060CC
:10084000002032BD009840082060F9E70098800839
:100850002060F5E70098C0082060F1E700202060E4
:100860000320EEE7001926401FB5040002A901206D
:10087000FFF7BBFF0100C9B2002903D000212160AE
:10088000C0B21AE0694601A8FFF79EFC019800215A
:10089000421C71F1FF335B0143EAD26352010098BD
:1008A000002112184B4102980021490141EAD06110
:1008B000400100F067F92060002004B010BD1FB5B2
:1008C000040002A90120FFF790FF0100C9B200292E
:1008D00003D000212160C0B21AE0694601A8FFF7E9
:1008E0007EFC01980021421C71F1FF335B0143EA59
:1008F000D26352010098002112184B410298002146
:10090000490141EAD061400100F03CF9206000203B
:1009100004B010BD80B5DFF84C100A68C2F30322A2
:100920000E2A07D00968C1F303210D2905D1FFF76D
:10093000C6FF02BDFFF798FFFBE70120F9E70000C3
:100940007C070828E00708281815264008152640C7
:100950000C15264030152640940708280819281041
:10096000C00708280000204001B58B071AD1830773
:1009700024D1121F21D351F8043BA3F1013C2CEAEE
:10098000030C1CF0803C04BF40F8043BF1E79CFAE8
:100990008CFCBCFA8CF1C1F118018B40CB4040F8C3
:1009A000043B13E0042A09D311F8013B521E00F85E
:1009B000013B5BB18B07F7D1D9E7121D5AB111F892
:1009C000013B521E00F8013B03B1F8D111001CBFDE
:1009D000002200F0F3F901BD01BEFEE780B5234A15
:1009E00023490B6893423ED00A60224A12684A6249
:1009F000214A8A6202684A6042688A608268CA60E4
:100A0000C2680A6102694A6142698A618269CA618F
:100A1000C2690A62F1EE102A12F0900F23D0174A31
:100A20008A62026ACA62426A0A63826A4A63C26A64
:100A30008A63026BCA63426B0A64826B4A64C26B4C
:100A40008A64026CCA64426C0A65826C4A65C26C34
:100A50008A65026DCA65426D0A66826D4A66C26D1C
:100A60008A66006EC86600F0D8F901BDFAF9F8F799
:100A70000C07082828ED00E0A4A3A2A1ABAAA9A80E
:100A8000103A07D330B4B1E83810103AA0E8381063
:100A9000F9D230BC530724BFB1E80810A0E8081011
:100AA00044BF51F8043B40F8043BD20724BF31F85F
:100AB000022B20F8022B44BF0B7803707047121FE3
:100AC00017D35B0009D151F8043B20F8023B1B0C03
:100AD000121F20F8023BF6D20BE051F8043B00F85D
:100AE000013B1B0A20F8023B1B0C121F00F8013BC4
:100AF000F3D238BF121D521E24BF11F8013B00F87B
:100B0000013BF8D87047F0B4024610689568131896
:100B1000506803EB5004C00748BF4D44A3422DD09A
:100B200013F8016B16F0030004BF13F8010BC01C8F
:100B300031090F2907D113F8011B0F3103E013F816
:100B4000017B05F8017B401EF9D10029E6D013F89E
:100B5000010BC6F38106032E08BF13F8016B00EBEF
:100B60000620404228440026B71E8F421EBF10F8C0
:100B7000017B05F8017B761CF6D1CFE7F0BC02F1D2
:100B80000C007047BBBBE1B1B2F5803F80F07E80C6
:100B9000022A1ED98C46B1FBF2F102FB11C31B04E1
:100BA00043EA1043B3FBF2FC02FB1C3380B240EA81
:100BB0000343B3FBF2F002FB103240EA0C40002387
:100BC0007047022A05D98446B0FBF2F002FB10C23E
:100BD00070474AB105D100F0010249085FEA3000D0
:100BE000704700220023704700F018B90B00020084
:100BF000002100207047904271EB030CF6D3B3F54F
:100C0000803F2FD2F0B5B3FA83F7B1FA81F4A7F1A0
:100C10000F0E3D1B5340CEF1200602FA0EF2F341B7
:100C20005340B5F10F0746D80F3C2C444140C4F166
:100C30002006A040F1414140B1FBF3F603FB161141
:100C4000A2FB0645001BA94102D2761E801859411D
:100C500080EA010221FA0EF362FA0EF200215A40F4
:100C60003046F0BD30B4B1FBF3FC03FB1C11A2FB1A
:100C70000C45001BA94103D2ACF1010C801859416D
:100C800030BC02460B46604600217047B2F1807FBF
:100C900065D3F0B5B2FA82F7B1FA81F4C7F10F0665
:100CA0003D1B22FA06F307F1110EF24120355A409E
:100CB000B5F10F07B8D94140C4F12006A040F14179
:100CC0004140B1FBF3FC03FB1C11A2FB0C45001BD4
:100CD000A94103D2BCF1010C801859410F2F12D346
:100CE0000F3FC90341EA5041B1FBF3F603FB161174
:100CF000A2FB0645D4EBC030A94102D2761E801873
:100D0000594146EACC3C07B34140C7F12006B84000
:100D1000F1414140B1FBF3F603FB1611A2FB06457E
:100D2000001BA94102D2761E8018594180EA0102B7
:100D300021FA0EF3C7F1200462FA0EF20CFA07F062
:100D40005A402CFA04F13043F0BD80EA010221FA46
:100D50000EF3002162FA0EF260465A40F0BD8C4656
:100D6000B1FBF2F102FB11C31B0243EA1063B3FBB8
:100D7000F2FC02FB1C331B024CEA002043EA106326
:100D8000B3FBF2FC02FB1C331B024CEA002043EADB
:100D90001063B3FBF2FC02FB1C331B024CEA002085
:100DA00043EA1063B3FBF2FC02FB1C324CEA002066
:100DB0000023704762F30F2262F31F42401810F0C5
:100DC000030308D0C91A1FD3DB0748BF00F8012D61
:100DD00028BF20F8022D130030B4144615461039F0
:100DE00028BF20E93C00FAD8490728BF20E90C00B9
:100DF00048BF40F8042D890028BF20F8022D48BFC5
:100E000000F8012D30BC7047C91818BF00F8012D3B
:100E1000CB0728BF00F8012D7047FEE770470000A0
:100E2000022801D301200FE00B00DBB2042B01DB11
:100E3000012009E07D4B03EB8000C9B2405C824297
:100E400001D3012000E000207047F8B506000F0034
:100E500015001C00022E01D301201CE02A003900DD
:100E6000C9B23000FFF7DCFF012801D1012012E0F8
:100E70003800C0B2002811D1B4F5807F0CD26C4884
:100E80007603304400EB850010F58050016864F370
:100E90000F2101600020F2BD0120FCE7FFB2012F0D
:100EA00010D1B4F5803F0BD261487603304400EB9B
:100EB000850010F5A050016864F317210160E9E78F
:100EC0000120E8E70120E6E700B20012C0B2704757
:100ED000F8B505000E001700280000B2FFF7F4FF78
:100EE00004002000C0B2022801D3012023E03A0010
:100EF0003100C9B22000C0B2FFF792FF012801D132
:100F0000012018E04A492000C0B2400308442A00EA
:100F1000D2B200EB8200D0F8000CF6B266F30920E2
:100F200067F30700E4B264032144EDB201EB8501ED
:100F3000C1F8000C0020F2BD70B504000D001600D1
:100F4000022C01D301201CE032002900C9B220008C
:100F5000FFF766FF012801D1012012E03449600348
:100F6000085850F0004050F0407050F47F00EDB24F
:100F700065F3092066F3070062038850640308598B
:100F8000002070BD38B594B0502100226C4620007E
:100F9000FFF710FF294C00220121B4F90000FFF7F0
:100FA00097FFB4F90000FFF78FFF0923002201210A
:100FB000C0B2FFF74AFFB4F90000FFF785FF002237
:100FC0000121C0B2FFF7B8FF5FF0FF3000900020B2
:100FD0008DF8040000208DF8050000208DF8060033
:100FE00000208DF8080003208DF8440001201290A5
:100FF00001208DF807000F4C0F4D69462078C00185
:10100000284400F01DF82078C001284400F0D8F8EA
:1010100000212078C001284400F0D7F82078C001D2
:10102000284400F0D4F815B030BD0000F01B2810A3
:10103000000004400A070828000059400807082853
:1010400010B4012291F84C30052B03D291F84D30A9
:10105000052B01D31000A7E0002800F0A480002990
:1010600000F0A180514A12684B7963F392428B7968
:1010700013F0030363F311420B7A13F0070363F3D6
:101080001A62CB7963F39E720B7D63F3000291F8D1
:10109000243063F3410202600A7910F130031C68C6
:1010A00062F307041C604A79012A0BD18A79002A6D
:1010B00002D10022826007E08A79012A04D10A68FD
:1010C000826001E001228260CA6802610A694261AD
:1010D000CA6982610A6AC2610A680262344A126895
:1010E0000B7E03F0FF03120A12021A4391F830300C
:1010F00003F0FF0363F3174291F8403003F0FF035E
:1011000063F31F6291F8483003F0FF0363F30F228B
:101110004264284A126891F8383003F0FF03120A3B
:1011200012021A4391F8283003F0FF0363F30F22F1
:101130008264214A12688B7D13F0030392089200A7
:101140001A4391F8253013F0030363F38B2291F8CF
:101150002C3013F0030363F3051291F8343013F0CD
:10116000030363F3092291F83C3013F0030363F3A4
:10117000871291F8443013F0030363F38302C264CF
:101180000E4A126891F84C3013F00703D208D200CF
:101190001A4391F84D3013F0070363F306124265CA
:1011A000497D81670022100010BC7047181C281070
:1011B0001C1C2810201C2810241C2810281C281057
:1011C000016851F000410160704781607047403014
:1011D000016851F0100101607047000038B500F05F
:1011E00077F900F042F800F0C9F871490868800307
:1011F00012D4BFF34F8FBFF36F8F00206D4A106082
:10120000BFF34F8FBFF36F8F086850F40030086052
:10121000BFF34F8FBFF36F8F0868C00324D4002043
:10122000654A1060BFF34F8F64480268C2F34E33C3
:10123000C2F3C90443F6E07010EA431050EA847028
:101240005F4D28602000441E0028F3D11800431E83
:101250000028EDD1BFF34F8F086850F4803008604C
:10126000BFF34F8FBFF36F8F31BD70B586B0684647
:1012700054491822FFF704FC00200AE069460200E6
:10128000D2B201EBC2014968491C11F0070F0DD120
:10129000401C0100C9B2032909D269460200D2B23A
:1012A00011F8321011F0070FE8D0FEE7FEE7464CC8
:1012B000207810F0070F00D0FEE7444D2868401C4E
:1012C00010F0070F00D0FEE7002622E0684631004C
:1012D000C9B200EBC10041683000C0B252F8300022
:1012E00000F043F814E000200028EFD02168491EE8
:1012F0003000C0B252F8300000F037F868463100D4
:10130000C9B200EBC10041682868401C00F02DF80C
:10131000761C3000C0B2032825D26A463000C0B225
:1013200052F83000002813D020683100C9B252F8BA
:10133000311088420AD368463100C9B200EBC100BF
:1013400040682168884201D30120CDE70020CBE727
:1013500068463100C9B200EBC1004068216888428C
:10136000C1D30120C0E706B070BD0022002302E017
:10137000C0E9002308308842FAD3704730B41448DB
:1013800080081449144A002308E01C00E4B252F813
:1013900024401D00EDB241F825405B1C1C000500F7
:1013A000E4B2EDB2AC42F0D30C48016030BC7047FF
:1013B00014ED00E050EF00E084ED00E080ED00E08F
:1013C00060EF00E0B41B2810801728108417281045
:1013D00080000000000808280000281008ED00E048
:1013E00010B5002042490860BFF34F8F41480168A3
:1013F000C1F34E32C1F3C90343F6E07010EA421064
:1014000050EA83703C4C20601800431E0028F3D142
:101410001000421E0028EDD1BFF34F8FBFF36F8F36
:10142000BFF34F8FBFF36F8F002034490860BFF3C5
:101430004F8FBFF36F8F00F001F810BD38B586B045
:1014400068462F491822FFF71BFB6846FEF7C0FFCE
:10145000C0B200280DD02B4C18222B492000FFF7DA
:1014600083FA0020E0754E20284908600020FFF72D
:10147000B3FA274D2800FFF74DFAC0B200280DD06F
:10148000204C182220492000FFF76EFA0020E0755A
:1014900050201E4908600020FFF79EFA1D49286869
:1014A00008600A681C4882181C48B2FBF0F01C4A0D
:1014B00010601C48096801F2E7314FF47A72B1FB01
:1014C000F2F101600068C0031749086007B030BD41
:1014D00080B500F02DF815490A6852F470020A60D0
:1014E000BFF34F8FBFF36F8F00F026F801BD0000F0
:1014F00084ED00E080ED00E074EF00E050EF00E0EC
:10150000CC1B2810940708280C182810C00708289E
:10151000C4070828C80708283F420F0040420F00B0
:10152000D0070828CC070828D407082888ED00E051
:10153000EFF3108072B6704780F310887047000098
:10154000010009B2002908D4012210F01F018A40CD
:101550004F4900B2400941F820207047FEE780B5AE
:101560004C4800684C4801680800C00F002805D0AE
:101570004A488905890D50F8210080470020FFF76F
:10158000DFFF01BD80B54648006846480168080095
:10159000C00F002805D041488905890D50F8210069
:1015A00080470120FFF7CCFF01BD80B53E480068B1
:1015B0003E4801680800C00F002805D0374889055B
:1015C000890D50F8210080470220FFF7B9FF01BDC7
:1015D00080B537480068374801680800C00F002808
:1015E00005D02E488905890D50F821008047032039
:1015F000FFF7A6FF01BD80B52F4800682F4801689E
:101600000800C00F002805D024488905890D50F82E
:10161000210080470420FFF793FF01BD80B52848D3
:101620000068284801680800C00F002805D01B4842
:101630008905890D50F8210080470520FFF780FFBC
:1016400001BD80B520480068204801680800C00F2F
:10165000002805D011488905890D50F821008047E0
:101660000620FFF76DFF01BD80B5194800681948D5
:1016700001680800C00F002805D008488905890DB9
:1016800050F8210080470720FFF75AFF01BD0000F6
:1016900080E200E0F81B2810000520400000082828
:1016A000FC1B281004052040001C281008052040C1
:1016B000041C28100C052040081C28101005204090
:1016C0000C1C281014052040101C28101805204060
:1016D000141C28101C05204072B61D4908684FEAEA
:1016E000102000F00F000E2808BF1A490D2808BF6F
:1016F0001949072808BF1949082808BF1849086868
:1017000020F00B0008600868BFF34F8F154816499A
:101710000860BFF34F8F1549086840F00700086064
:101720001349086840F007000860BFF34F8FBFF30C
:101730006F8F00200021124AE2E802016A45FBD1C6
:101740000C4FB8470C4FB8470C4FB847FEE70000A6
:10175000000020400C0020400C0420400C082040D9
:101760000C0C20400000281008ED00E090EF00E095
:1017700094EF00E0DD112810391A2810991B281069
:1017800000FF0B28FFFF0B28C0F840127047D0F86D
:101790000802C005C00D7047D0F80802C0F3C03081
:1017A000704738B505002800FFF7F1FF0400280056
:1017B000FFF7F2FF0419002C01D1012000E0002006
:1017C000C0B232BD38B50400DFF83C50C9B22000C9
:1017D000C0B255F82000FFF7D7FF2000C0B255F87F
:1017E0002000FFF7DEFF0028F7D031BD38B5040038
:1017F0000D0005E029782000C0B2FFF7E3FF6D1C63
:1018000028780028F6D131BDEC060828443A5C67F8
:101810006F6F676C655F72656D6F74656C795F7310
:101820006176655C6C6F6E67207465726D20707296
:101830006F6A6563745C6361725F636F6D7065741A
:10184000655C436F7265626F6172645F44656D6F62
:101850005C6C69627261726965735C73646B5C7401
:101860007669696268346D5C7372635C73797374F2
:10187000656D5C73797374656D5F747669696268B0
:10188000346D5F636D372E6300000000443A5C677F
:101890006F6F676C655F72656D6F74656C795F7390
:1018A0006176655C6C6F6E67207465726D20707216
:1018B0006F6A6563745C6361725F636F6D7065749A
:1018C000655C436F7265626F6172645F44656D6FE2
:1018D0005C6C69627261726965735C73646B5C7481
:1018E0007669696268346D5C7372635C6472697690
:1018F0006572735C737973636C6B5C63795F737926
:1019000073636C6B2E680000443A5C676F6F676CA2
:10191000655F72656D6F74656C795F736176655C28
:101920006C6F6E67207465726D2070726F6A65638C
:10193000745C6361725F636F6D706574655C436F47
:101940007265626F6172645F44656D6F5C6C696241
:101950007261726965735C73646B5C7476696962E9
:1019600068346D5C7372635C647269766572735C13
:10197000737973636C6B5C63795F737973636C6B9E
:101980002E63000080B501000020FFF72FFF01BD8E
:10199000002101804FF6FF7141808180FF2181711C
:1019A000C171002181600021C16000210161704787
:1019B000104902880A8042884A8082888A80827917
:1019C0008A71C279CA7182688A60C268CA60006915
:1019D0000861012008490870704700B585B0684665
:1019E000FFF7D6FF054802906846FFF7E1FF05B014
:1019F00000BD0000AC070828E10708288519281059
:101A000030B4002512E050F8042BD30744BF4A44F9
:101A1000521E091F042942F8045BFAD213468C07B0
:101A200044BF15809B1CC90748BF1D7050F8041B9C
:101A30000029E8D130BC704710B507497944183106
:101A4000064C7C44163404E00A68081D114488479B
:101A50000146A142F8D110BD2C0000004800000052
:101A60004EF68851CEF20001086840F4700008601C
:101A7000BFF34F8FBFF36F8F4FF00170E1EE100A8D
:101A8000704700007DFFFFFFD80000000C0708280A
:101A90000000000073F0FFFFD00100006E000000A6
:101AA0000000082804207146084202D0EFF30980A4
:101AB00001E0EFF3088000B50149884700BD000050
:101AC000DD092810000000000000000000000000F8
:101AD000801C800803D0401C801EFCD100BF7047D2
:101AE000EFF3108072B6704780F3108870470000E3
:101AF00000F00EF8002801D0FFF79EFFAFF3008042
:101B00000020AFF3008000F005F800F00DF80000B1
:101B10000020704780B5034800F008F8FFF75DFF2C
:101B2000FEE700BF80B2E60E00F00EB880B50549B2
:101B30000860FFF755FCFFF725FA002000F00AF8CF
:101B400001BD0000D80708280746384600F00CF809
:101B5000FBE70000002800D162B602480168491C7A
:101B600001607047DC07082880B5AFF30080024AA7
:101B700011001820ABBEFBE72600020004207146CE
:101B8000084201D0EFF30980EFF3088000B5014966
:101B9000884700BDE51B28100548014603B4684688
:101BA00080F30988AFF30080FFF75AFFFFF7A0FF2B
:101BB000A5EDF5FE00000828FFFF0B28000000201F
:101BC000FF3F002000000000FF3F000000127A00ED
:101BD000000000000024F4000080000000800000ED
:101BE00000800000816911F8021CC9B201607047D1
:101BF00003010000101100100000000000000000B0
:101C000000000000000000000000000000000000D4
:101C100000000000000000000000000000000000C4
:101C2000000000000000000000000000FFF7FEBF01
:101C3000FFF738BFFFF736BFFFF734BFFFF7FEBF30
:101C4000FFF7FEBFFFF7FEBFFFF7FEBFFFF7FEBFC8
:101C5000FFF7FEBFFFF7FEBFFFF7FEBFFFF7FEBFB8
:101C6000FFF7FEBFFFF7FEBFF002FF5D152810046F
:101C7000F1FF04F1FF04F1FF04F1FF04F1FF04F1AF
:101C8000770410050000604000006504126404122F
:101C900063041262041267040003664078010700BF
:101CA0000000000000000000000000000000000034
:101CB0000000000000000000000000000000000024
:101CC0000000000000000000000000000000000014
:101CD0000000000000000000000000000000000004
:101CE00000000000000000000000000000000000F4
:101CF00000000000000000000000000000000000E4
:101D000000000000000000000000000000000000D3
:101D100000000000000000000000000000000000C3
:101D200000000000000000000000000000000000B3
:101D300000000000000000000000000000000000A3
:101D40000000000000000000000000000000000093
:101D50000000000000000000000000000000000083
:101D60000000000000000000000000000000000073
:101D70000000000000000000000000000000000063
:101D80000000000000000000000000000000000053
:101D90000000000000000000000000000000000043
:061DA0000000000000003D
:0400000510281B990B
:00000001FF
